"use strict";(self.webpackChunknethermind_docs=self.webpackChunknethermind_docs||[]).push([[2275],{3137:(e,t,l)=>{l.r(t),l.d(t,{assets:()=>x,contentTitle:()=>i,default:()=>f,frontMatter:()=>r,metadata:()=>a,toc:()=>o});var s=l(5893),n=l(1151),d=l(4866),c=l(5162);const r={},i="proof",a={id:"utilities/cli/proof",title:"proof",description:"proof.getTransactionByHash",source:"@site/docs/utilities/cli/proof.md",sourceDirName:"utilities/cli",slug:"/utilities/cli/proof",permalink:"/docs/utilities/cli/proof",draft:!1,unlisted:!1,editUrl:"https://github.com/NethermindEth/docs/tree/main/docs/docs/utilities/cli/proof.md",tags:[],version:"current",lastUpdatedAt:1698878579,formattedLastUpdatedAt:"Nov 1, 2023",frontMatter:{},sidebar:"tutorialSidebar",previous:{title:"personal",permalink:"/docs/utilities/cli/personal"},next:{title:"system",permalink:"/docs/utilities/cli/system"}},x={},o=[{value:"proof.getTransactionByHash",id:"proofgettransactionbyhash",level:2},{value:"proof.getTransactionReceipt",id:"proofgettransactionreceipt",level:2}];function h(e){const t={a:"a",code:"code",h1:"h1",h2:"h2",p:"p",pre:"pre",table:"table",tbody:"tbody",td:"td",th:"th",thead:"thead",tr:"tr",...(0,n.a)(),...e.components};return(0,s.jsxs)(s.Fragment,{children:[(0,s.jsx)(t.h1,{id:"proof",children:"proof"}),"\n",(0,s.jsx)(t.h2,{id:"proofgettransactionbyhash",children:"proof.getTransactionByHash"}),"\n",(0,s.jsxs)(t.p,{children:["This function returns the same result as ",(0,s.jsx)(t.code,{children:"eth_getTransactionReceipt"})," and also a tx proof, receipt proof and serialized\nblock headers."]}),"\n",(0,s.jsxs)(t.table,{children:[(0,s.jsx)(t.thead,{children:(0,s.jsx)(t.tr,{children:(0,s.jsx)(t.th,{style:{textAlign:"left"},children:"Invocation"})})}),(0,s.jsx)(t.tbody,{children:(0,s.jsx)(t.tr,{children:(0,s.jsx)(t.td,{style:{textAlign:"left"},children:(0,s.jsx)(t.code,{children:"proof.getTransactionByHash(txHash, includeHeader)"})})})})]}),"\n",(0,s.jsxs)(t.table,{children:[(0,s.jsx)(t.thead,{children:(0,s.jsxs)(t.tr,{children:[(0,s.jsx)(t.th,{style:{textAlign:"left"},children:"Parameter"}),(0,s.jsx)(t.th,{style:{textAlign:"left"},children:"Type"}),(0,s.jsx)(t.th,{style:{textAlign:"left"},children:"Description"})]})}),(0,s.jsxs)(t.tbody,{children:[(0,s.jsxs)(t.tr,{children:[(0,s.jsx)(t.td,{style:{textAlign:"left"},children:"txHash"}),(0,s.jsx)(t.td,{style:{textAlign:"left"},children:(0,s.jsx)(t.code,{children:"Hash"})}),(0,s.jsx)(t.td,{style:{textAlign:"left"}})]}),(0,s.jsxs)(t.tr,{children:[(0,s.jsx)(t.td,{style:{textAlign:"left"},children:"includeHeader"}),(0,s.jsx)(t.td,{style:{textAlign:"left"},children:(0,s.jsx)(t.code,{children:"Boolean"})}),(0,s.jsx)(t.td,{style:{textAlign:"left"}})]})]})]}),"\n",(0,s.jsxs)(t.table,{children:[(0,s.jsx)(t.thead,{children:(0,s.jsxs)(t.tr,{children:[(0,s.jsx)(t.th,{style:{textAlign:"left"},children:"Returned type"}),(0,s.jsx)(t.th,{style:{textAlign:"left"},children:"Description"})]})}),(0,s.jsx)(t.tbody,{children:(0,s.jsxs)(t.tr,{children:[(0,s.jsx)(t.td,{style:{textAlign:"left"},children:(0,s.jsx)(t.code,{children:"TransactionWithProof object"})}),(0,s.jsx)(t.td,{style:{textAlign:"left"}})]})})]}),"\n",(0,s.jsxs)(d.Z,{children:[(0,s.jsx)(c.Z,{value:"request",label:"Request",children:(0,s.jsx)(t.pre,{children:(0,s.jsx)(t.code,{className:"language-yaml",children:"proof.getTransactionByHash(txHash, includeHeader)\n"})})}),(0,s.jsx)(c.Z,{value:"response",label:"Response",children:(0,s.jsx)(t.pre,{children:(0,s.jsx)(t.code,{className:"language-yaml",children:'"transaction": { "hash": "0xb62594c08de66c683fbffe44792a1ccc0f9b80e43071048ed03c18a71fd3c19a","nonce": "0x630","blockHash": "0x42d72739c2b2659916d7b42a49661fdec317e780af1395c2c15aa89b4c42e220","blockNumber": "0x88f194","transactionIndex": "0x24","from": "0x78ca86e8133ef9368b4537879cf2f38fddbb636b","to": "0x1dfd95eb75a7486945d366a0bc0b937f0aaa526f","value": "0x0","gasPrice": "0x3b9aca00","gas": "0xc9e2","data": "0xa9059cbb000000000000000000000000e3ac1cc1453e70f80ff58f3bb56b0532238ae24a00000000000000000000000000000000000000000000003635c9adc5dea00000","input": "0xa9059cbb000000000000000000000000e3ac1cc1453e70f80ff58f3bb56b0532238ae24a00000000000000000000000000000000000000000000003635c9adc5dea00000","type": "0x0","v": "0x2b","s": "0x33a9425e84bf310d372a9f531b237baebccfdd2b426e817cc9553355a9165342","r": "0xe14a066de4787a4c0192f5a2285fd835a85baa3a4f63b1e8a2d8d7f6e04425ca" },"txProof": [ "0xf891a0311d3b27b7612bf40c2c5d623c62c2afe30a47f486700074e4c4d7cf603c90c8a0cd64d350a95e9286a580a75ae11fe58801992f9ac65ace8a0b853d16f87b09b0a0ae9d609ff06d19bb911d7ad05cfdd6c80a9f1fddccbdb76a78594536122345ce8080808080a09773b23452983c0ed65aebb64522af322967c62be34414e16b32b7e4bdaecdb68080808080808080","0xf8b1a0715f91aae7675a1c8469685d18bc94241d275c82a3b52df6c4fab064fcba3017a0e77ac7615c08eaafccc876956f3dad1892f08c1f1128e2cdf9064664381a540fa06f2d934e5f7995657144ad66b8b5cdce6b6c141422f95d44eb91ca6765d4f819a0b265c005bad056db029945b3d68a631b624a77703733fa9b2042c0f211f8ef4ea0bb97f719cc5f6082fe5bab8588dc564a843a6b40c5494982ded868f19eef07b6808080808080808080808080","0xf8af20b8acf8aa820630843b9aca0082c9e2941dfd95eb75a7486945d366a0bc0b937f0aaa526f80b844a9059cbb000000000000000000000000e3ac1cc1453e70f80ff58f3bb56b0532238ae24a00000000000000000000000000000000000000000000003635c9adc5dea000002ba0e14a066de4787a4c0192f5a2285fd835a85baa3a4f63b1e8a2d8d7f6e04425caa033a9425e84bf310d372a9f531b237baebccfdd2b426e817cc9553355a9165342" ]\n'})})}),(0,s.jsxs)(c.Z,{value:"objects",label:"Object",children:[(0,s.jsx)(t.p,{children:(0,s.jsx)(t.code,{children:"TransactionWithProof"})}),(0,s.jsxs)(t.table,{children:[(0,s.jsx)(t.thead,{children:(0,s.jsxs)(t.tr,{children:[(0,s.jsx)(t.th,{style:{textAlign:"left"},children:"Field name"}),(0,s.jsx)(t.th,{style:{textAlign:"left"},children:"Type"})]})}),(0,s.jsxs)(t.tbody,{children:[(0,s.jsxs)(t.tr,{children:[(0,s.jsx)(t.td,{style:{textAlign:"left"},children:"Transaction"}),(0,s.jsx)(t.td,{style:{textAlign:"left"},children:(0,s.jsx)(t.code,{children:"TransactionForRpc object"})})]}),(0,s.jsxs)(t.tr,{children:[(0,s.jsx)(t.td,{style:{textAlign:"left"},children:"TxProof"}),(0,s.jsx)(t.td,{style:{textAlign:"left"},children:(0,s.jsx)(t.code,{children:"Data"})})]}),(0,s.jsxs)(t.tr,{children:[(0,s.jsx)(t.td,{style:{textAlign:"left"},children:"BlockHeader"}),(0,s.jsx)(t.td,{style:{textAlign:"left"},children:(0,s.jsx)(t.code,{children:"Data"})})]})]})]}),(0,s.jsx)(t.p,{children:(0,s.jsx)(t.code,{children:"TransactionForRpc"})}),(0,s.jsxs)(t.table,{children:[(0,s.jsx)(t.thead,{children:(0,s.jsxs)(t.tr,{children:[(0,s.jsx)(t.th,{style:{textAlign:"left"},children:"Field name"}),(0,s.jsx)(t.th,{style:{textAlign:"left"},children:"Type"})]})}),(0,s.jsxs)(t.tbody,{children:[(0,s.jsxs)(t.tr,{children:[(0,s.jsx)(t.td,{style:{textAlign:"left"},children:"Hash"}),(0,s.jsx)(t.td,{style:{textAlign:"left"},children:(0,s.jsx)(t.code,{children:"Hash"})})]}),(0,s.jsxs)(t.tr,{children:[(0,s.jsx)(t.td,{style:{textAlign:"left"},children:"Nonce"}),(0,s.jsx)(t.td,{style:{textAlign:"left"},children:(0,s.jsx)(t.code,{children:"Quantity"})})]}),(0,s.jsxs)(t.tr,{children:[(0,s.jsx)(t.td,{style:{textAlign:"left"},children:"BlockHash"}),(0,s.jsx)(t.td,{style:{textAlign:"left"},children:(0,s.jsx)(t.code,{children:"Hash"})})]}),(0,s.jsxs)(t.tr,{children:[(0,s.jsx)(t.td,{style:{textAlign:"left"},children:"BlockNumber"}),(0,s.jsx)(t.td,{style:{textAlign:"left"},children:(0,s.jsx)(t.code,{children:"Quantity"})})]}),(0,s.jsxs)(t.tr,{children:[(0,s.jsx)(t.td,{style:{textAlign:"left"},children:"TransactionIndex"}),(0,s.jsx)(t.td,{style:{textAlign:"left"},children:(0,s.jsx)(t.code,{children:"Quantity"})})]}),(0,s.jsxs)(t.tr,{children:[(0,s.jsx)(t.td,{style:{textAlign:"left"},children:"From"}),(0,s.jsx)(t.td,{style:{textAlign:"left"},children:(0,s.jsx)(t.code,{children:"Address"})})]}),(0,s.jsxs)(t.tr,{children:[(0,s.jsx)(t.td,{style:{textAlign:"left"},children:"To"}),(0,s.jsx)(t.td,{style:{textAlign:"left"},children:(0,s.jsx)(t.code,{children:"Address"})})]}),(0,s.jsxs)(t.tr,{children:[(0,s.jsx)(t.td,{style:{textAlign:"left"},children:"Value"}),(0,s.jsx)(t.td,{style:{textAlign:"left"},children:(0,s.jsx)(t.code,{children:"Quantity"})})]}),(0,s.jsxs)(t.tr,{children:[(0,s.jsx)(t.td,{style:{textAlign:"left"},children:"GasPrice"}),(0,s.jsx)(t.td,{style:{textAlign:"left"},children:(0,s.jsx)(t.code,{children:"Quantity"})})]}),(0,s.jsxs)(t.tr,{children:[(0,s.jsx)(t.td,{style:{textAlign:"left"},children:"MaxPriorityFeePerGas"}),(0,s.jsx)(t.td,{style:{textAlign:"left"},children:(0,s.jsx)(t.code,{children:"Quantity"})})]}),(0,s.jsxs)(t.tr,{children:[(0,s.jsx)(t.td,{style:{textAlign:"left"},children:"MaxFeePerGas"}),(0,s.jsx)(t.td,{style:{textAlign:"left"},children:(0,s.jsx)(t.code,{children:"Quantity"})})]}),(0,s.jsxs)(t.tr,{children:[(0,s.jsx)(t.td,{style:{textAlign:"left"},children:"Gas"}),(0,s.jsx)(t.td,{style:{textAlign:"left"},children:(0,s.jsx)(t.code,{children:"Quantity"})})]}),(0,s.jsxs)(t.tr,{children:[(0,s.jsx)(t.td,{style:{textAlign:"left"},children:"Data"}),(0,s.jsx)(t.td,{style:{textAlign:"left"},children:(0,s.jsx)(t.code,{children:"Data"})})]}),(0,s.jsxs)(t.tr,{children:[(0,s.jsx)(t.td,{style:{textAlign:"left"},children:"Input"}),(0,s.jsx)(t.td,{style:{textAlign:"left"},children:(0,s.jsx)(t.code,{children:"Data"})})]}),(0,s.jsxs)(t.tr,{children:[(0,s.jsx)(t.td,{style:{textAlign:"left"},children:"ChainId"}),(0,s.jsx)(t.td,{style:{textAlign:"left"},children:(0,s.jsx)(t.code,{children:"Quantity"})})]}),(0,s.jsxs)(t.tr,{children:[(0,s.jsx)(t.td,{style:{textAlign:"left"},children:"Type"}),(0,s.jsx)(t.td,{style:{textAlign:"left"},children:(0,s.jsx)(t.code,{children:"TxType object"})})]}),(0,s.jsxs)(t.tr,{children:[(0,s.jsx)(t.td,{style:{textAlign:"left"},children:"AccessList"}),(0,s.jsx)(t.td,{style:{textAlign:"left"},children:(0,s.jsx)(t.code,{children:"AccessListItemForRpc[] object"})})]}),(0,s.jsxs)(t.tr,{children:[(0,s.jsx)(t.td,{style:{textAlign:"left"},children:"MaxFeePerDataGas"}),(0,s.jsx)(t.td,{style:{textAlign:"left"},children:(0,s.jsx)(t.code,{children:"Quantity"})})]}),(0,s.jsxs)(t.tr,{children:[(0,s.jsx)(t.td,{style:{textAlign:"left"},children:"BlobVersionedHashes"}),(0,s.jsx)(t.td,{style:{textAlign:"left"},children:(0,s.jsx)(t.code,{children:"Data"})})]}),(0,s.jsxs)(t.tr,{children:[(0,s.jsx)(t.td,{style:{textAlign:"left"},children:"V"}),(0,s.jsx)(t.td,{style:{textAlign:"left"},children:(0,s.jsx)(t.code,{children:"Quantity"})})]}),(0,s.jsxs)(t.tr,{children:[(0,s.jsx)(t.td,{style:{textAlign:"left"},children:"S"}),(0,s.jsx)(t.td,{style:{textAlign:"left"},children:(0,s.jsx)(t.code,{children:"Quantity"})})]}),(0,s.jsxs)(t.tr,{children:[(0,s.jsx)(t.td,{style:{textAlign:"left"},children:"R"}),(0,s.jsx)(t.td,{style:{textAlign:"left"},children:(0,s.jsx)(t.code,{children:"Quantity"})})]}),(0,s.jsxs)(t.tr,{children:[(0,s.jsx)(t.td,{style:{textAlign:"left"},children:"YParity"}),(0,s.jsx)(t.td,{style:{textAlign:"left"},children:(0,s.jsx)(t.code,{children:"Quantity"})})]})]})]})]})]}),"\n",(0,s.jsx)(t.p,{children:(0,s.jsx)(t.a,{href:"https://docs.nethermind.io/nethermind/ethereum-client/json-rpc/proof#proof_gettransactionbyhash",children:"See also JSON RPC proof_getTransactionByHash"})}),"\n",(0,s.jsx)(t.h2,{id:"proofgettransactionreceipt",children:"proof.getTransactionReceipt"}),"\n",(0,s.jsxs)(t.p,{children:["This function should return the same result as ",(0,s.jsx)(t.code,{children:"eth_call"})," and also proofs of all used accounts and their storages and\nserialized block headers."]}),"\n",(0,s.jsxs)(t.table,{children:[(0,s.jsx)(t.thead,{children:(0,s.jsx)(t.tr,{children:(0,s.jsx)(t.th,{style:{textAlign:"left"},children:"Invocation"})})}),(0,s.jsx)(t.tbody,{children:(0,s.jsx)(t.tr,{children:(0,s.jsx)(t.td,{style:{textAlign:"left"},children:(0,s.jsx)(t.code,{children:"proof.getTransactionReceipt(txHash, includeHeader)"})})})})]}),"\n",(0,s.jsxs)(t.table,{children:[(0,s.jsx)(t.thead,{children:(0,s.jsxs)(t.tr,{children:[(0,s.jsx)(t.th,{style:{textAlign:"left"},children:"Parameter"}),(0,s.jsx)(t.th,{style:{textAlign:"left"},children:"Type"}),(0,s.jsx)(t.th,{style:{textAlign:"left"},children:"Description"})]})}),(0,s.jsxs)(t.tbody,{children:[(0,s.jsxs)(t.tr,{children:[(0,s.jsx)(t.td,{style:{textAlign:"left"},children:"txHash"}),(0,s.jsx)(t.td,{style:{textAlign:"left"},children:(0,s.jsx)(t.code,{children:"Hash"})}),(0,s.jsx)(t.td,{style:{textAlign:"left"}})]}),(0,s.jsxs)(t.tr,{children:[(0,s.jsx)(t.td,{style:{textAlign:"left"},children:"includeHeader"}),(0,s.jsx)(t.td,{style:{textAlign:"left"},children:(0,s.jsx)(t.code,{children:"Boolean"})}),(0,s.jsx)(t.td,{style:{textAlign:"left"}})]})]})]}),"\n",(0,s.jsxs)(t.table,{children:[(0,s.jsx)(t.thead,{children:(0,s.jsxs)(t.tr,{children:[(0,s.jsx)(t.th,{style:{textAlign:"left"},children:"Returned type"}),(0,s.jsx)(t.th,{style:{textAlign:"left"},children:"Description"})]})}),(0,s.jsx)(t.tbody,{children:(0,s.jsxs)(t.tr,{children:[(0,s.jsx)(t.td,{style:{textAlign:"left"},children:(0,s.jsx)(t.code,{children:"ReceiptWithProof object"})}),(0,s.jsx)(t.td,{style:{textAlign:"left"}})]})})]}),"\n",(0,s.jsxs)(d.Z,{children:[(0,s.jsx)(c.Z,{value:"request",label:"Request",children:(0,s.jsx)(t.pre,{children:(0,s.jsx)(t.code,{className:"language-yaml",children:"proof.getTransactionReceipt(txHash, includeHeader)\n"})})}),(0,s.jsx)(c.Z,{value:"response",label:"Response",children:(0,s.jsx)(t.pre,{children:(0,s.jsx)(t.code,{className:"language-yaml",children:'{ "receipt": { "transactionHash": "0xfff473e0d10e9dcc18bb4585fb2ba17f682949996f5dfda41c20c425a53b4e71","transactionIndex": "0x0","blockHash": "0x539822db4041dac07f02819b1337f5f9d7291a996f80d9c05ada334c7a97264c","blockNumber": "0x1","cumulativeGasUsed": "0x0","gasUsed": "0x0","to": null,"contractAddress": null,"logs": [ ],"logsBloom": "0x00000000000000000000000000000000000000000000000000000000000000000000000000000000000000000000000000000000000000000000000000000000000000000000000000000000000000000000000000000000000000000000000000000000000000000000000000000000000000000000000000000000000000000000000000000000000000000000000000000000000000000000000000000000000000000000000000000000000000000000000000000000000000000000000000000000000000000000000000000000000000000000000000000000000000000000000000000000000000000000000000000000000000000000000000000000","status": "0x0","type": "0x0" },"txProof": [ "0xf851a073ff16e6f3a3ca20ba99ad5bacc973e800ba7ec7092266fcd2520703613e3d9580808080808080a0a70de17dcf5a91c1b986463b4e8419665333b2a66e66f7127baae3d4d58d052d8080808080808080","0xf86530b862f86080018252089400000000000000000000000000000000000000000181801ca0b4e030f395ed357d206b58d9a0ded408589a9e26f1a5b41010772cd0d84b8d16a04d9797a972bc308ea635f22455881c41c7c9fb946c93db6f99d2bd529675af13" ],"receiptProof": [ "0xf851a08e4cd3def722e9727e505d3798454165d832e1aabd5c56e5d0e4e9f0796a783280808080808080a05380738598f169c9e407a0f61558e53ea59a4c5e643aabc57679c7c0a3b761428080808080808080","0xf9012f30b9012bf90128a056e81f171bcc55a6ff8345e692c0f86e5b48e01b996cadc001622fb5e363b421825208b9010000000000000000000000000000000000000000000000000000000000000000000000000000000000000000000000000000000000000000000000000000000000000000000000000000000000000000000000000000000000000000000000000000000000000000000000000000000000000000000000000000000000000000000000000000000000000000000000000000000000000000000000000000000000000000000000000000000000000000000000000000000000000000000000000000000000000000000000000000000000000000000000000000000000000000000000000000000000000000000000000000000000000000000000000000000000c0" ],"blockHeader": "0xf901f9a0b3157bcccab04639f6393042690a6c9862deebe88c781f911e8dfd265531e9ffa01dcc4de8dec75d7aab85b567b6ccd41ad312451b948a7413f0a142fd40d49347940000000000000000000000000000000000000000a056e81f171bcc55a6ff8345e692c0f86e5b48e01b996cadc001622fb5e363b421a0541c8844bd420f79a5f7f8db723e2106160d350043de7cf76d78ea13ed0ff6c9a0e1b1585a222beceb3887dc6701802facccf186c2d0f6aa69e26ae0c431fc2b5db9010000000000000000000000000000000000000000000000000000000000000000000000000000000000000000000000000000000000000000000000000000000000000000000000000000000000000000000000000000000000000000000000000000000000000000000000000000000000000000000000000000000000000000000000000000000000000000000000000000000000000000000000000000000000000000000000000000000000000000000000000000000000000000000000000000000000000000000000000000000000000000000000000000000000000000000000000000000000000000000000000000000000000000000000000000000000830f424001833d090080830f424183010203a02ba5557a4c62a513c7e56d1bf13373e0da6bec016755483e91589fe1c6d212e28800000000000003e8" }\n'})})}),(0,s.jsxs)(c.Z,{value:"objects",label:"Object",children:[(0,s.jsx)(t.p,{children:(0,s.jsx)(t.code,{children:"ReceiptWithProof"})}),(0,s.jsxs)(t.table,{children:[(0,s.jsx)(t.thead,{children:(0,s.jsxs)(t.tr,{children:[(0,s.jsx)(t.th,{style:{textAlign:"left"},children:"Field name"}),(0,s.jsx)(t.th,{style:{textAlign:"left"},children:"Type"})]})}),(0,s.jsxs)(t.tbody,{children:[(0,s.jsxs)(t.tr,{children:[(0,s.jsx)(t.td,{style:{textAlign:"left"},children:"Receipt"}),(0,s.jsx)(t.td,{style:{textAlign:"left"},children:(0,s.jsx)(t.code,{children:"ReceiptForRpc object"})})]}),(0,s.jsxs)(t.tr,{children:[(0,s.jsx)(t.td,{style:{textAlign:"left"},children:"TxProof"}),(0,s.jsx)(t.td,{style:{textAlign:"left"},children:(0,s.jsx)(t.code,{children:"Data"})})]}),(0,s.jsxs)(t.tr,{children:[(0,s.jsx)(t.td,{style:{textAlign:"left"},children:"ReceiptProof"}),(0,s.jsx)(t.td,{style:{textAlign:"left"},children:(0,s.jsx)(t.code,{children:"Data"})})]}),(0,s.jsxs)(t.tr,{children:[(0,s.jsx)(t.td,{style:{textAlign:"left"},children:"BlockHeader"}),(0,s.jsx)(t.td,{style:{textAlign:"left"},children:(0,s.jsx)(t.code,{children:"Data"})})]})]})]}),(0,s.jsx)(t.p,{children:(0,s.jsx)(t.code,{children:"ReceiptForRpc"})}),(0,s.jsxs)(t.table,{children:[(0,s.jsx)(t.thead,{children:(0,s.jsxs)(t.tr,{children:[(0,s.jsx)(t.th,{style:{textAlign:"left"},children:"Field name"}),(0,s.jsx)(t.th,{style:{textAlign:"left"},children:"Type"})]})}),(0,s.jsxs)(t.tbody,{children:[(0,s.jsxs)(t.tr,{children:[(0,s.jsx)(t.td,{style:{textAlign:"left"},children:"TransactionHash"}),(0,s.jsx)(t.td,{style:{textAlign:"left"},children:(0,s.jsx)(t.code,{children:"Hash"})})]}),(0,s.jsxs)(t.tr,{children:[(0,s.jsx)(t.td,{style:{textAlign:"left"},children:"TransactionIndex"}),(0,s.jsx)(t.td,{style:{textAlign:"left"},children:(0,s.jsx)(t.code,{children:"Quantity"})})]}),(0,s.jsxs)(t.tr,{children:[(0,s.jsx)(t.td,{style:{textAlign:"left"},children:"BlockHash"}),(0,s.jsx)(t.td,{style:{textAlign:"left"},children:(0,s.jsx)(t.code,{children:"Hash"})})]}),(0,s.jsxs)(t.tr,{children:[(0,s.jsx)(t.td,{style:{textAlign:"left"},children:"BlockNumber"}),(0,s.jsx)(t.td,{style:{textAlign:"left"},children:(0,s.jsx)(t.code,{children:"Quantity"})})]}),(0,s.jsxs)(t.tr,{children:[(0,s.jsx)(t.td,{style:{textAlign:"left"},children:"CumulativeGasUsed"}),(0,s.jsx)(t.td,{style:{textAlign:"left"},children:(0,s.jsx)(t.code,{children:"Quantity"})})]}),(0,s.jsxs)(t.tr,{children:[(0,s.jsx)(t.td,{style:{textAlign:"left"},children:"GasUsed"}),(0,s.jsx)(t.td,{style:{textAlign:"left"},children:(0,s.jsx)(t.code,{children:"Quantity"})})]}),(0,s.jsxs)(t.tr,{children:[(0,s.jsx)(t.td,{style:{textAlign:"left"},children:"DataGasUsed"}),(0,s.jsx)(t.td,{style:{textAlign:"left"},children:(0,s.jsx)(t.code,{children:"Quantity"})})]}),(0,s.jsxs)(t.tr,{children:[(0,s.jsx)(t.td,{style:{textAlign:"left"},children:"DataGasPrice"}),(0,s.jsx)(t.td,{style:{textAlign:"left"},children:(0,s.jsx)(t.code,{children:"Quantity"})})]}),(0,s.jsxs)(t.tr,{children:[(0,s.jsx)(t.td,{style:{textAlign:"left"},children:"EffectiveGasPrice"}),(0,s.jsx)(t.td,{style:{textAlign:"left"},children:(0,s.jsx)(t.code,{children:"Quantity"})})]}),(0,s.jsxs)(t.tr,{children:[(0,s.jsx)(t.td,{style:{textAlign:"left"},children:"From"}),(0,s.jsx)(t.td,{style:{textAlign:"left"},children:(0,s.jsx)(t.code,{children:"Address"})})]}),(0,s.jsxs)(t.tr,{children:[(0,s.jsx)(t.td,{style:{textAlign:"left"},children:"To"}),(0,s.jsx)(t.td,{style:{textAlign:"left"},children:(0,s.jsx)(t.code,{children:"Address"})})]}),(0,s.jsxs)(t.tr,{children:[(0,s.jsx)(t.td,{style:{textAlign:"left"},children:"ContractAddress"}),(0,s.jsx)(t.td,{style:{textAlign:"left"},children:(0,s.jsx)(t.code,{children:"Address"})})]}),(0,s.jsxs)(t.tr,{children:[(0,s.jsx)(t.td,{style:{textAlign:"left"},children:"Logs"}),(0,s.jsx)(t.td,{style:{textAlign:"left"},children:(0,s.jsx)(t.code,{children:"LogEntryForRpc[] object"})})]}),(0,s.jsxs)(t.tr,{children:[(0,s.jsx)(t.td,{style:{textAlign:"left"},children:"LogsBloom"}),(0,s.jsx)(t.td,{style:{textAlign:"left"},children:(0,s.jsx)(t.code,{children:"Bloom Object"})})]}),(0,s.jsxs)(t.tr,{children:[(0,s.jsx)(t.td,{style:{textAlign:"left"},children:"Root"}),(0,s.jsx)(t.td,{style:{textAlign:"left"},children:(0,s.jsx)(t.code,{children:"Hash"})})]}),(0,s.jsxs)(t.tr,{children:[(0,s.jsx)(t.td,{style:{textAlign:"left"},children:"Status"}),(0,s.jsx)(t.td,{style:{textAlign:"left"},children:(0,s.jsx)(t.code,{children:"Quantity"})})]}),(0,s.jsxs)(t.tr,{children:[(0,s.jsx)(t.td,{style:{textAlign:"left"},children:"Error"}),(0,s.jsx)(t.td,{style:{textAlign:"left"},children:(0,s.jsx)(t.code,{children:"String"})})]}),(0,s.jsxs)(t.tr,{children:[(0,s.jsx)(t.td,{style:{textAlign:"left"},children:"Type"}),(0,s.jsx)(t.td,{style:{textAlign:"left"},children:(0,s.jsx)(t.code,{children:"TxType object"})})]})]})]})]})]}),"\n",(0,s.jsx)(t.p,{children:(0,s.jsx)(t.a,{href:"https://docs.nethermind.io/nethermind/ethereum-client/json-rpc/proof#proof_gettransactionreceipt",children:"See also JSON RPC proof_getTransactionReceipt"})})]})}function f(e={}){const{wrapper:t}={...(0,n.a)(),...e.components};return t?(0,s.jsx)(t,{...e,children:(0,s.jsx)(h,{...e})}):h(e)}},5162:(e,t,l)=>{l.d(t,{Z:()=>c});l(7294);var s=l(6010);const n={tabItem:"tabItem_Ymn6"};var d=l(5893);function c(e){let{children:t,hidden:l,className:c}=e;return(0,d.jsx)("div",{role:"tabpanel",className:(0,s.Z)(n.tabItem,c),hidden:l,children:t})}},4866:(e,t,l)=>{l.d(t,{Z:()=>v});var s=l(7294),n=l(6010),d=l(2466),c=l(6550),r=l(469),i=l(1980),a=l(7392),x=l(12);function o(e){return s.Children.toArray(e).filter((e=>"\n"!==e)).map((e=>{if(!e||(0,s.isValidElement)(e)&&function(e){const{props:t}=e;return!!t&&"object"==typeof t&&"value"in t}(e))return e;throw new Error(`Docusaurus error: Bad <Tabs> child <${"string"==typeof e.type?e.type:e.type.name}>: all children of the <Tabs> component should be <TabItem>, and every <TabItem> should have a unique "value" prop.`)}))?.filter(Boolean)??[]}function h(e){const{values:t,children:l}=e;return(0,s.useMemo)((()=>{const e=t??function(e){return o(e).map((e=>{let{props:{value:t,label:l,attributes:s,default:n}}=e;return{value:t,label:l,attributes:s,default:n}}))}(l);return function(e){const t=(0,a.l)(e,((e,t)=>e.value===t.value));if(t.length>0)throw new Error(`Docusaurus error: Duplicate values "${t.map((e=>e.value)).join(", ")}" found in <Tabs>. Every value needs to be unique.`)}(e),e}),[t,l])}function f(e){let{value:t,tabValues:l}=e;return l.some((e=>e.value===t))}function j(e){let{queryString:t=!1,groupId:l}=e;const n=(0,c.k6)(),d=function(e){let{queryString:t=!1,groupId:l}=e;if("string"==typeof t)return t;if(!1===t)return null;if(!0===t&&!l)throw new Error('Docusaurus error: The <Tabs> component groupId prop is required if queryString=true, because this value is used as the search param name. You can also provide an explicit value such as queryString="my-search-param".');return l??null}({queryString:t,groupId:l});return[(0,i._X)(d),(0,s.useCallback)((e=>{if(!d)return;const t=new URLSearchParams(n.location.search);t.set(d,e),n.replace({...n.location,search:t.toString()})}),[d,n])]}function u(e){const{defaultValue:t,queryString:l=!1,groupId:n}=e,d=h(e),[c,i]=(0,s.useState)((()=>function(e){let{defaultValue:t,tabValues:l}=e;if(0===l.length)throw new Error("Docusaurus error: the <Tabs> component requires at least one <TabItem> children component");if(t){if(!f({value:t,tabValues:l}))throw new Error(`Docusaurus error: The <Tabs> has a defaultValue "${t}" but none of its children has the corresponding value. Available values are: ${l.map((e=>e.value)).join(", ")}. If you intend to show no default tab, use defaultValue={null} instead.`);return t}const s=l.find((e=>e.default))??l[0];if(!s)throw new Error("Unexpected error: 0 tabValues");return s.value}({defaultValue:t,tabValues:d}))),[a,o]=j({queryString:l,groupId:n}),[u,b]=function(e){let{groupId:t}=e;const l=function(e){return e?`docusaurus.tab.${e}`:null}(t),[n,d]=(0,x.Nk)(l);return[n,(0,s.useCallback)((e=>{l&&d.set(e)}),[l,d])]}({groupId:n}),y=(()=>{const e=a??u;return f({value:e,tabValues:d})?e:null})();(0,r.Z)((()=>{y&&i(y)}),[y]);return{selectedValue:c,selectValue:(0,s.useCallback)((e=>{if(!f({value:e,tabValues:d}))throw new Error(`Can't select invalid tab value=${e}`);i(e),o(e),b(e)}),[o,b,d]),tabValues:d}}var b=l(2389);const y={tabList:"tabList__CuJ",tabItem:"tabItem_LNqP"};var g=l(5893);function p(e){let{className:t,block:l,selectedValue:s,selectValue:c,tabValues:r}=e;const i=[],{blockElementScrollPositionUntilNextRender:a}=(0,d.o5)(),x=e=>{const t=e.currentTarget,l=i.indexOf(t),n=r[l].value;n!==s&&(a(t),c(n))},o=e=>{let t=null;switch(e.key){case"Enter":x(e);break;case"ArrowRight":{const l=i.indexOf(e.currentTarget)+1;t=i[l]??i[0];break}case"ArrowLeft":{const l=i.indexOf(e.currentTarget)-1;t=i[l]??i[i.length-1];break}}t?.focus()};return(0,g.jsx)("ul",{role:"tablist","aria-orientation":"horizontal",className:(0,n.Z)("tabs",{"tabs--block":l},t),children:r.map((e=>{let{value:t,label:l,attributes:d}=e;return(0,g.jsx)("li",{role:"tab",tabIndex:s===t?0:-1,"aria-selected":s===t,ref:e=>i.push(e),onKeyDown:o,onClick:x,...d,className:(0,n.Z)("tabs__item",y.tabItem,d?.className,{"tabs__item--active":s===t}),children:l??t},t)}))})}function A(e){let{lazy:t,children:l,selectedValue:n}=e;const d=(Array.isArray(l)?l:[l]).filter(Boolean);if(t){const e=d.find((e=>e.props.value===n));return e?(0,s.cloneElement)(e,{className:"margin-top--md"}):null}return(0,g.jsx)("div",{className:"margin-top--md",children:d.map(((e,t)=>(0,s.cloneElement)(e,{key:t,hidden:e.props.value!==n})))})}function m(e){const t=u(e);return(0,g.jsxs)("div",{className:(0,n.Z)("tabs-container",y.tabList),children:[(0,g.jsx)(p,{...e,...t}),(0,g.jsx)(A,{...e,...t})]})}function v(e){const t=(0,b.Z)();return(0,g.jsx)(m,{...e,children:o(e.children)},String(t))}},1151:(e,t,l)=>{l.d(t,{Z:()=>r,a:()=>c});var s=l(7294);const n={},d=s.createContext(n);function c(e){const t=s.useContext(d);return s.useMemo((function(){return"function"==typeof e?e(t):{...t,...e}}),[t,e])}function r(e){let t;return t=e.disableParentContext?"function"==typeof e.components?e.components(n):e.components||n:c(e.components),s.createElement(d.Provider,{value:t},e.children)}}}]);