"use strict";(self.webpackChunkmy_website=self.webpackChunkmy_website||[]).push([[2529],{3905:(t,e,a)=>{a.d(e,{Zo:()=>o,kt:()=>c});var n=a(7294);function r(t,e,a){return e in t?Object.defineProperty(t,e,{value:a,enumerable:!0,configurable:!0,writable:!0}):t[e]=a,t}function l(t,e){var a=Object.keys(t);if(Object.getOwnPropertySymbols){var n=Object.getOwnPropertySymbols(t);e&&(n=n.filter((function(e){return Object.getOwnPropertyDescriptor(t,e).enumerable}))),a.push.apply(a,n)}return a}function i(t){for(var e=1;e<arguments.length;e++){var a=null!=arguments[e]?arguments[e]:{};e%2?l(Object(a),!0).forEach((function(e){r(t,e,a[e])})):Object.getOwnPropertyDescriptors?Object.defineProperties(t,Object.getOwnPropertyDescriptors(a)):l(Object(a)).forEach((function(e){Object.defineProperty(t,e,Object.getOwnPropertyDescriptor(a,e))}))}return t}function p(t,e){if(null==t)return{};var a,n,r=function(t,e){if(null==t)return{};var a,n,r={},l=Object.keys(t);for(n=0;n<l.length;n++)a=l[n],e.indexOf(a)>=0||(r[a]=t[a]);return r}(t,e);if(Object.getOwnPropertySymbols){var l=Object.getOwnPropertySymbols(t);for(n=0;n<l.length;n++)a=l[n],e.indexOf(a)>=0||Object.prototype.propertyIsEnumerable.call(t,a)&&(r[a]=t[a])}return r}var d=n.createContext({}),m=function(t){var e=n.useContext(d),a=e;return t&&(a="function"==typeof t?t(e):i(i({},e),t)),a},o=function(t){var e=m(t.components);return n.createElement(d.Provider,{value:e},t.children)},k="mdxType",s={inlineCode:"code",wrapper:function(t){var e=t.children;return n.createElement(n.Fragment,{},e)}},N=n.forwardRef((function(t,e){var a=t.components,r=t.mdxType,l=t.originalType,d=t.parentName,o=p(t,["components","mdxType","originalType","parentName"]),k=m(a),N=r,c=k["".concat(d,".").concat(N)]||k[N]||s[N]||l;return a?n.createElement(c,i(i({ref:e},o),{},{components:a})):n.createElement(c,i({ref:e},o))}));function c(t,e){var a=arguments,r=e&&e.mdxType;if("string"==typeof t||r){var l=a.length,i=new Array(l);i[0]=N;var p={};for(var d in e)hasOwnProperty.call(e,d)&&(p[d]=e[d]);p.originalType=t,p[k]="string"==typeof t?t:r,i[1]=p;for(var m=2;m<l;m++)i[m]=a[m];return n.createElement.apply(null,i)}return n.createElement.apply(null,a)}N.displayName="MDXCreateElement"},5162:(t,e,a)=>{a.d(e,{Z:()=>i});var n=a(7294),r=a(6010);const l={tabItem:"tabItem_Ymn6"};function i(t){let{children:e,hidden:a,className:i}=t;return n.createElement("div",{role:"tabpanel",className:(0,r.Z)(l.tabItem,i),hidden:a},e)}},4866:(t,e,a)=>{a.d(e,{Z:()=>C});var n=a(7462),r=a(7294),l=a(6010),i=a(2466),p=a(6550),d=a(1980),m=a(7392),o=a(12);function k(t){return function(t){return r.Children.map(t,(t=>{if(!t||(0,r.isValidElement)(t)&&function(t){const{props:e}=t;return!!e&&"object"==typeof e&&"value"in e}(t))return t;throw new Error(`Docusaurus error: Bad <Tabs> child <${"string"==typeof t.type?t.type:t.type.name}>: all children of the <Tabs> component should be <TabItem>, and every <TabItem> should have a unique "value" prop.`)}))?.filter(Boolean)??[]}(t).map((t=>{let{props:{value:e,label:a,attributes:n,default:r}}=t;return{value:e,label:a,attributes:n,default:r}}))}function s(t){const{values:e,children:a}=t;return(0,r.useMemo)((()=>{const t=e??k(a);return function(t){const e=(0,m.l)(t,((t,e)=>t.value===e.value));if(e.length>0)throw new Error(`Docusaurus error: Duplicate values "${e.map((t=>t.value)).join(", ")}" found in <Tabs>. Every value needs to be unique.`)}(t),t}),[e,a])}function N(t){let{value:e,tabValues:a}=t;return a.some((t=>t.value===e))}function c(t){let{queryString:e=!1,groupId:a}=t;const n=(0,p.k6)(),l=function(t){let{queryString:e=!1,groupId:a}=t;if("string"==typeof e)return e;if(!1===e)return null;if(!0===e&&!a)throw new Error('Docusaurus error: The <Tabs> component groupId prop is required if queryString=true, because this value is used as the search param name. You can also provide an explicit value such as queryString="my-search-param".');return a??null}({queryString:e,groupId:a});return[(0,d._X)(l),(0,r.useCallback)((t=>{if(!l)return;const e=new URLSearchParams(n.location.search);e.set(l,t),n.replace({...n.location,search:e.toString()})}),[l,n])]}function f(t){const{defaultValue:e,queryString:a=!1,groupId:n}=t,l=s(t),[i,p]=(0,r.useState)((()=>function(t){let{defaultValue:e,tabValues:a}=t;if(0===a.length)throw new Error("Docusaurus error: the <Tabs> component requires at least one <TabItem> children component");if(e){if(!N({value:e,tabValues:a}))throw new Error(`Docusaurus error: The <Tabs> has a defaultValue "${e}" but none of its children has the corresponding value. Available values are: ${a.map((t=>t.value)).join(", ")}. If you intend to show no default tab, use defaultValue={null} instead.`);return e}const n=a.find((t=>t.default))??a[0];if(!n)throw new Error("Unexpected error: 0 tabValues");return n.value}({defaultValue:e,tabValues:l}))),[d,m]=c({queryString:a,groupId:n}),[k,f]=function(t){let{groupId:e}=t;const a=function(t){return t?`docusaurus.tab.${t}`:null}(e),[n,l]=(0,o.Nk)(a);return[n,(0,r.useCallback)((t=>{a&&l.set(t)}),[a,l])]}({groupId:n}),u=(()=>{const t=d??k;return N({value:t,tabValues:l})?t:null})();(0,r.useLayoutEffect)((()=>{u&&p(u)}),[u]);return{selectedValue:i,selectValue:(0,r.useCallback)((t=>{if(!N({value:t,tabValues:l}))throw new Error(`Can't select invalid tab value=${t}`);p(t),m(t),f(t)}),[m,f,l]),tabValues:l}}var u=a(2389);const b={tabList:"tabList__CuJ",tabItem:"tabItem_LNqP"};function g(t){let{className:e,block:a,selectedValue:p,selectValue:d,tabValues:m}=t;const o=[],{blockElementScrollPositionUntilNextRender:k}=(0,i.o5)(),s=t=>{const e=t.currentTarget,a=o.indexOf(e),n=m[a].value;n!==p&&(k(e),d(n))},N=t=>{let e=null;switch(t.key){case"Enter":s(t);break;case"ArrowRight":{const a=o.indexOf(t.currentTarget)+1;e=o[a]??o[0];break}case"ArrowLeft":{const a=o.indexOf(t.currentTarget)-1;e=o[a]??o[o.length-1];break}}e?.focus()};return r.createElement("ul",{role:"tablist","aria-orientation":"horizontal",className:(0,l.Z)("tabs",{"tabs--block":a},e)},m.map((t=>{let{value:e,label:a,attributes:i}=t;return r.createElement("li",(0,n.Z)({role:"tab",tabIndex:p===e?0:-1,"aria-selected":p===e,key:e,ref:t=>o.push(t),onKeyDown:N,onClick:s},i,{className:(0,l.Z)("tabs__item",b.tabItem,i?.className,{"tabs__item--active":p===e})}),a??e)})))}function y(t){let{lazy:e,children:a,selectedValue:n}=t;const l=(Array.isArray(a)?a:[a]).filter(Boolean);if(e){const t=l.find((t=>t.props.value===n));return t?(0,r.cloneElement)(t,{className:"margin-top--md"}):null}return r.createElement("div",{className:"margin-top--md"},l.map(((t,e)=>(0,r.cloneElement)(t,{key:e,hidden:t.props.value!==n}))))}function h(t){const e=f(t);return r.createElement("div",{className:(0,l.Z)("tabs-container",b.tabList)},r.createElement(g,(0,n.Z)({},t,e)),r.createElement(y,(0,n.Z)({},t,e)))}function C(t){const e=(0,u.Z)();return r.createElement(h,(0,n.Z)({key:String(e)},t))}},84:(t,e,a)=>{a.r(e),a.d(e,{assets:()=>o,contentTitle:()=>d,default:()=>c,frontMatter:()=>p,metadata:()=>m,toc:()=>k});var n=a(7462),r=(a(7294),a(3905)),l=a(4866),i=a(5162);const p={},d="parity",m={unversionedId:"nethermind-utilities/cli/parity",id:"nethermind-utilities/cli/parity",title:"parity",description:"parity.clearEngineSigner",source:"@site/docs/06-nethermind-utilities/cli/parity.md",sourceDirName:"06-nethermind-utilities/cli",slug:"/nethermind-utilities/cli/parity",permalink:"/docs/nethermind-utilities/cli/parity",draft:!1,editUrl:"https://github.com/NethermindEth/docs/tree/main/docs/docs/06-nethermind-utilities/cli/parity.md",tags:[],version:"current",lastUpdatedAt:1692303147,formattedLastUpdatedAt:"Aug 17, 2023",frontMatter:{},sidebar:"tutorialSidebar",previous:{title:"node",permalink:"/docs/nethermind-utilities/cli/node"},next:{title:"personal",permalink:"/docs/nethermind-utilities/cli/personal"}},o={},k=[{value:"parity.clearEngineSigner",id:"parityclearenginesigner",level:2},{value:"parity.enode",id:"parityenode",level:2},{value:"parity.getBlockReceipts",id:"paritygetblockreceipts",level:2},{value:"parity.netPeers",id:"paritynetpeers",level:2},{value:"parity.pendingTransactions",id:"paritypendingtransactions",level:2},{value:"parity.setEngineSigner",id:"paritysetenginesigner",level:2},{value:"parity.setEngineSignerSecret",id:"paritysetenginesignersecret",level:2}],s={toc:k},N="wrapper";function c(t){let{components:e,...a}=t;return(0,r.kt)(N,(0,n.Z)({},s,a,{components:e,mdxType:"MDXLayout"}),(0,r.kt)("h1",{id:"parity"},"parity"),(0,r.kt)("h2",{id:"parityclearenginesigner"},"parity.clearEngineSigner"),(0,r.kt)("p",null,"Clears an authority account for signing consensus messages. Blocks will not be sealed."),(0,r.kt)("table",null,(0,r.kt)("thead",{parentName:"table"},(0,r.kt)("tr",{parentName:"thead"},(0,r.kt)("th",{parentName:"tr",align:"left"},"Invocation"))),(0,r.kt)("tbody",{parentName:"table"},(0,r.kt)("tr",{parentName:"tbody"},(0,r.kt)("td",{parentName:"tr",align:"left"},(0,r.kt)("inlineCode",{parentName:"td"},"parity.clearEngineSigner()"))))),(0,r.kt)("table",null,(0,r.kt)("thead",{parentName:"table"},(0,r.kt)("tr",{parentName:"thead"},(0,r.kt)("th",{parentName:"tr",align:"left"},"This method doesn't have parameters.")))),(0,r.kt)("table",null,(0,r.kt)("thead",{parentName:"table"},(0,r.kt)("tr",{parentName:"thead"},(0,r.kt)("th",{parentName:"tr",align:"left"},"Returned type"),(0,r.kt)("th",{parentName:"tr",align:"left"},"Description"))),(0,r.kt)("tbody",{parentName:"table"},(0,r.kt)("tr",{parentName:"tbody"},(0,r.kt)("td",{parentName:"tr",align:"left"},(0,r.kt)("inlineCode",{parentName:"td"},"Boolean")),(0,r.kt)("td",{parentName:"tr",align:"left"})))),(0,r.kt)("pre",null,(0,r.kt)("code",{parentName:"pre",className:"language-yaml",metastring:'title="Example request of parity.clearEngineSigner"',title:'"Example',request:!0,of:!0,'parity.clearEngineSigner"':!0},"parity.clearEngineSigner()\n")),(0,r.kt)("p",null,(0,r.kt)("a",{parentName:"p",href:"https://docs.nethermind.io/nethermind/ethereum-client/json-rpc/parity#parity_clearenginesigner"},"See also JSON RPC parity_clearEngineSigner")),(0,r.kt)("h2",{id:"parityenode"},"parity.enode"),(0,r.kt)("p",null,"Returns the node enode URI."),(0,r.kt)("table",null,(0,r.kt)("thead",{parentName:"table"},(0,r.kt)("tr",{parentName:"thead"},(0,r.kt)("th",{parentName:"tr",align:"left"},"Invocation"))),(0,r.kt)("tbody",{parentName:"table"},(0,r.kt)("tr",{parentName:"tbody"},(0,r.kt)("td",{parentName:"tr",align:"left"},(0,r.kt)("inlineCode",{parentName:"td"},"parity.enode"))))),(0,r.kt)("table",null,(0,r.kt)("thead",{parentName:"table"},(0,r.kt)("tr",{parentName:"thead"},(0,r.kt)("th",{parentName:"tr",align:"left"},"This method doesn't have parameters.")))),(0,r.kt)("table",null,(0,r.kt)("thead",{parentName:"table"},(0,r.kt)("tr",{parentName:"thead"},(0,r.kt)("th",{parentName:"tr",align:"left"},"Returned type"),(0,r.kt)("th",{parentName:"tr",align:"left"},"Description"))),(0,r.kt)("tbody",{parentName:"table"},(0,r.kt)("tr",{parentName:"tbody"},(0,r.kt)("td",{parentName:"tr",align:"left"},(0,r.kt)("inlineCode",{parentName:"td"},"String")),(0,r.kt)("td",{parentName:"tr",align:"left"})))),(0,r.kt)(l.Z,{mdxType:"Tabs"},(0,r.kt)(i.Z,{label:"Request",value:"request",mdxType:"TabItem"},(0,r.kt)("pre",null,(0,r.kt)("code",{parentName:"pre",className:"language-yaml"},"parity.enode\n"))),(0,r.kt)(i.Z,{label:"Response",value:"response",mdxType:"TabItem"},(0,r.kt)("pre",null,(0,r.kt)("code",{parentName:"pre",className:"language-yaml"},"enode://a9cfa3cb16b537e131b0f141b5ef0c0ab9bf0dbec7799c3fc7bf8a974ff3e74e9b3258951b285dfed07ab395049bcd65fed96116bb92561612682551ec458497@18.193.43.58:30303\n")))),(0,r.kt)("p",null,(0,r.kt)("a",{parentName:"p",href:"https://docs.nethermind.io/nethermind/ethereum-client/json-rpc/parity#parity_enode"},"See also JSON RPC parity_enode")),(0,r.kt)("h2",{id:"paritygetblockreceipts"},"parity.getBlockReceipts"),(0,r.kt)("p",null,"Get receipts from all transactions from particular block, more efficient than fetching the receipts one-by-one."),(0,r.kt)("table",null,(0,r.kt)("thead",{parentName:"table"},(0,r.kt)("tr",{parentName:"thead"},(0,r.kt)("th",{parentName:"tr",align:"left"},"Invocation"))),(0,r.kt)("tbody",{parentName:"table"},(0,r.kt)("tr",{parentName:"tbody"},(0,r.kt)("td",{parentName:"tr",align:"left"},(0,r.kt)("inlineCode",{parentName:"td"},"parity.getBlockReceipts(blockParameter)"))))),(0,r.kt)("table",null,(0,r.kt)("thead",{parentName:"table"},(0,r.kt)("tr",{parentName:"thead"},(0,r.kt)("th",{parentName:"tr",align:"left"},"Parameter"),(0,r.kt)("th",{parentName:"tr",align:"left"},"Type"),(0,r.kt)("th",{parentName:"tr",align:"left"},"Description"))),(0,r.kt)("tbody",{parentName:"table"},(0,r.kt)("tr",{parentName:"tbody"},(0,r.kt)("td",{parentName:"tr",align:"left"},"blockParameter"),(0,r.kt)("td",{parentName:"tr",align:"left"},(0,r.kt)("inlineCode",{parentName:"td"},"BlockParameter object")),(0,r.kt)("td",{parentName:"tr",align:"left"})))),(0,r.kt)("table",null,(0,r.kt)("thead",{parentName:"table"},(0,r.kt)("tr",{parentName:"thead"},(0,r.kt)("th",{parentName:"tr",align:"left"},"Returned type"),(0,r.kt)("th",{parentName:"tr",align:"left"},"Description"))),(0,r.kt)("tbody",{parentName:"table"},(0,r.kt)("tr",{parentName:"tbody"},(0,r.kt)("td",{parentName:"tr",align:"left"},(0,r.kt)("inlineCode",{parentName:"td"},"ReceiptForRpc object")),(0,r.kt)("td",{parentName:"tr",align:"left"})))),(0,r.kt)(l.Z,{mdxType:"Tabs"},(0,r.kt)(i.Z,{value:"request",label:"Request",mdxType:"TabItem"},(0,r.kt)("pre",null,(0,r.kt)("code",{parentName:"pre",className:"language-yaml"},"parity.getBlockReceipts(latest)\n"))),(0,r.kt)(i.Z,{value:"response",label:"Response",mdxType:"TabItem"},(0,r.kt)("pre",null,(0,r.kt)("code",{parentName:"pre",className:"language-yaml"},'{ "transactionHash": "0x5bea2e9354f63960beaf02942e7c791e61ae47ce6952115afcb3d7fbd5b8043b","transactionIndex": "0x2","blockHash": "0x31fda0834473452ad7df17e351bb540294fe9cf9752472468851f6b3a2c5f5aa","blockNumber": "0x88de36","cumulativeGasUsed": "0x50e46","gasUsed": "0x5208","from": "0xdd078bc60e500d379eaf30fc8658661ea0f2608a","to": "0x5aab44fdc254f247dcb7ad89f248e7da346081d5","contractAddress": null,"logs": [ ],"logsBloom": "0x00000000000000000000000000000000000000000000000000000000000000000000000000000000000000000000000000000000000000000000000000000000000000000000000000000000000000000000000000000000000000000000000000000000000000000000000000000000000000000000000000000000000000000000000000000000000000000000000000000000000000000000000000000000000000000000000000000000000000000000000000000000000000000000000000000000000000000000000000000000000000000000000000000000000000000000000000000000000000000000000000000000000000000000000000000000","status": "0x1","type": "0x0" }, (...)\n'))),(0,r.kt)(i.Z,{value:"objects",label:"Object",mdxType:"TabItem"},(0,r.kt)("p",null,(0,r.kt)("inlineCode",{parentName:"p"},"BlockParameter")),(0,r.kt)("table",null,(0,r.kt)("thead",{parentName:"table"},(0,r.kt)("tr",{parentName:"thead"},(0,r.kt)("th",{parentName:"tr",align:"left"},"Field name"),(0,r.kt)("th",{parentName:"tr",align:"left"},"Type"))),(0,r.kt)("tbody",{parentName:"table"},(0,r.kt)("tr",{parentName:"tbody"},(0,r.kt)("td",{parentName:"tr",align:"left"},"Type"),(0,r.kt)("td",{parentName:"tr",align:"left"},(0,r.kt)("inlineCode",{parentName:"td"},"BlockParameterType object"))),(0,r.kt)("tr",{parentName:"tbody"},(0,r.kt)("td",{parentName:"tr",align:"left"},"BlockNumber"),(0,r.kt)("td",{parentName:"tr",align:"left"},(0,r.kt)("inlineCode",{parentName:"td"},"Quantity"))),(0,r.kt)("tr",{parentName:"tbody"},(0,r.kt)("td",{parentName:"tr",align:"left"},"BlockHash"),(0,r.kt)("td",{parentName:"tr",align:"left"},(0,r.kt)("inlineCode",{parentName:"td"},"Hash"))),(0,r.kt)("tr",{parentName:"tbody"},(0,r.kt)("td",{parentName:"tr",align:"left"},"RequireCanonical"),(0,r.kt)("td",{parentName:"tr",align:"left"},(0,r.kt)("inlineCode",{parentName:"td"},"Boolean"))))),(0,r.kt)("p",null,(0,r.kt)("inlineCode",{parentName:"p"},"BlockParameterType")),(0,r.kt)("ul",null,(0,r.kt)("li",{parentName:"ul"},(0,r.kt)("inlineCode",{parentName:"li"},"Quantity")," or ",(0,r.kt)("inlineCode",{parentName:"li"},"String")," (latest, earliest, pending)")),(0,r.kt)("p",null,(0,r.kt)("inlineCode",{parentName:"p"},"ReceiptForRpc")),(0,r.kt)("table",null,(0,r.kt)("thead",{parentName:"table"},(0,r.kt)("tr",{parentName:"thead"},(0,r.kt)("th",{parentName:"tr",align:"left"},"Field name"),(0,r.kt)("th",{parentName:"tr",align:"left"},"Type"))),(0,r.kt)("tbody",{parentName:"table"},(0,r.kt)("tr",{parentName:"tbody"},(0,r.kt)("td",{parentName:"tr",align:"left"},"TransactionHash"),(0,r.kt)("td",{parentName:"tr",align:"left"},(0,r.kt)("inlineCode",{parentName:"td"},"Hash"))),(0,r.kt)("tr",{parentName:"tbody"},(0,r.kt)("td",{parentName:"tr",align:"left"},"TransactionIndex"),(0,r.kt)("td",{parentName:"tr",align:"left"},(0,r.kt)("inlineCode",{parentName:"td"},"Quantity"))),(0,r.kt)("tr",{parentName:"tbody"},(0,r.kt)("td",{parentName:"tr",align:"left"},"BlockHash"),(0,r.kt)("td",{parentName:"tr",align:"left"},(0,r.kt)("inlineCode",{parentName:"td"},"Hash"))),(0,r.kt)("tr",{parentName:"tbody"},(0,r.kt)("td",{parentName:"tr",align:"left"},"BlockNumber"),(0,r.kt)("td",{parentName:"tr",align:"left"},(0,r.kt)("inlineCode",{parentName:"td"},"Quantity"))),(0,r.kt)("tr",{parentName:"tbody"},(0,r.kt)("td",{parentName:"tr",align:"left"},"CumulativeGasUsed"),(0,r.kt)("td",{parentName:"tr",align:"left"},(0,r.kt)("inlineCode",{parentName:"td"},"Quantity"))),(0,r.kt)("tr",{parentName:"tbody"},(0,r.kt)("td",{parentName:"tr",align:"left"},"GasUsed"),(0,r.kt)("td",{parentName:"tr",align:"left"},(0,r.kt)("inlineCode",{parentName:"td"},"Quantity"))),(0,r.kt)("tr",{parentName:"tbody"},(0,r.kt)("td",{parentName:"tr",align:"left"},"DataGasUsed"),(0,r.kt)("td",{parentName:"tr",align:"left"},(0,r.kt)("inlineCode",{parentName:"td"},"Quantity"))),(0,r.kt)("tr",{parentName:"tbody"},(0,r.kt)("td",{parentName:"tr",align:"left"},"DataGasPrice"),(0,r.kt)("td",{parentName:"tr",align:"left"},(0,r.kt)("inlineCode",{parentName:"td"},"Quantity"))),(0,r.kt)("tr",{parentName:"tbody"},(0,r.kt)("td",{parentName:"tr",align:"left"},"EffectiveGasPrice"),(0,r.kt)("td",{parentName:"tr",align:"left"},(0,r.kt)("inlineCode",{parentName:"td"},"Quantity"))),(0,r.kt)("tr",{parentName:"tbody"},(0,r.kt)("td",{parentName:"tr",align:"left"},"From"),(0,r.kt)("td",{parentName:"tr",align:"left"},(0,r.kt)("inlineCode",{parentName:"td"},"Address"))),(0,r.kt)("tr",{parentName:"tbody"},(0,r.kt)("td",{parentName:"tr",align:"left"},"To"),(0,r.kt)("td",{parentName:"tr",align:"left"},(0,r.kt)("inlineCode",{parentName:"td"},"Address"))),(0,r.kt)("tr",{parentName:"tbody"},(0,r.kt)("td",{parentName:"tr",align:"left"},"ContractAddress"),(0,r.kt)("td",{parentName:"tr",align:"left"},(0,r.kt)("inlineCode",{parentName:"td"},"Address"))),(0,r.kt)("tr",{parentName:"tbody"},(0,r.kt)("td",{parentName:"tr",align:"left"},"Logs"),(0,r.kt)("td",{parentName:"tr",align:"left"},(0,r.kt)("inlineCode",{parentName:"td"},"LogEntryForRpc[] object"))),(0,r.kt)("tr",{parentName:"tbody"},(0,r.kt)("td",{parentName:"tr",align:"left"},"LogsBloom"),(0,r.kt)("td",{parentName:"tr",align:"left"},(0,r.kt)("inlineCode",{parentName:"td"},"Bloom Object"))),(0,r.kt)("tr",{parentName:"tbody"},(0,r.kt)("td",{parentName:"tr",align:"left"},"Root"),(0,r.kt)("td",{parentName:"tr",align:"left"},(0,r.kt)("inlineCode",{parentName:"td"},"Hash"))),(0,r.kt)("tr",{parentName:"tbody"},(0,r.kt)("td",{parentName:"tr",align:"left"},"Status"),(0,r.kt)("td",{parentName:"tr",align:"left"},(0,r.kt)("inlineCode",{parentName:"td"},"Quantity"))),(0,r.kt)("tr",{parentName:"tbody"},(0,r.kt)("td",{parentName:"tr",align:"left"},"Error"),(0,r.kt)("td",{parentName:"tr",align:"left"},(0,r.kt)("inlineCode",{parentName:"td"},"String"))),(0,r.kt)("tr",{parentName:"tbody"},(0,r.kt)("td",{parentName:"tr",align:"left"},"Type"),(0,r.kt)("td",{parentName:"tr",align:"left"},(0,r.kt)("inlineCode",{parentName:"td"},"TxType object"))))),(0,r.kt)("p",null,(0,r.kt)("inlineCode",{parentName:"p"},"LogEntryForRpc[]")),(0,r.kt)("table",null,(0,r.kt)("thead",{parentName:"table"},(0,r.kt)("tr",{parentName:"thead"},(0,r.kt)("th",{parentName:"tr",align:"left"},"Field name"),(0,r.kt)("th",{parentName:"tr",align:"left"},"Type"))),(0,r.kt)("tbody",{parentName:"table"},(0,r.kt)("tr",{parentName:"tbody"},(0,r.kt)("td",{parentName:"tr",align:"left"},"Removed"),(0,r.kt)("td",{parentName:"tr",align:"left"},(0,r.kt)("inlineCode",{parentName:"td"},"Boolean"))),(0,r.kt)("tr",{parentName:"tbody"},(0,r.kt)("td",{parentName:"tr",align:"left"},"LogIndex"),(0,r.kt)("td",{parentName:"tr",align:"left"},(0,r.kt)("inlineCode",{parentName:"td"},"Quantity"))),(0,r.kt)("tr",{parentName:"tbody"},(0,r.kt)("td",{parentName:"tr",align:"left"},"TransactionIndex"),(0,r.kt)("td",{parentName:"tr",align:"left"},(0,r.kt)("inlineCode",{parentName:"td"},"Quantity"))),(0,r.kt)("tr",{parentName:"tbody"},(0,r.kt)("td",{parentName:"tr",align:"left"},"TransactionHash"),(0,r.kt)("td",{parentName:"tr",align:"left"},(0,r.kt)("inlineCode",{parentName:"td"},"Hash"))),(0,r.kt)("tr",{parentName:"tbody"},(0,r.kt)("td",{parentName:"tr",align:"left"},"BlockHash"),(0,r.kt)("td",{parentName:"tr",align:"left"},(0,r.kt)("inlineCode",{parentName:"td"},"Hash"))),(0,r.kt)("tr",{parentName:"tbody"},(0,r.kt)("td",{parentName:"tr",align:"left"},"BlockNumber"),(0,r.kt)("td",{parentName:"tr",align:"left"},(0,r.kt)("inlineCode",{parentName:"td"},"Quantity"))),(0,r.kt)("tr",{parentName:"tbody"},(0,r.kt)("td",{parentName:"tr",align:"left"},"Address"),(0,r.kt)("td",{parentName:"tr",align:"left"},(0,r.kt)("inlineCode",{parentName:"td"},"Address"))),(0,r.kt)("tr",{parentName:"tbody"},(0,r.kt)("td",{parentName:"tr",align:"left"},"Data"),(0,r.kt)("td",{parentName:"tr",align:"left"},(0,r.kt)("inlineCode",{parentName:"td"},"Data"))),(0,r.kt)("tr",{parentName:"tbody"},(0,r.kt)("td",{parentName:"tr",align:"left"},"Topics"),(0,r.kt)("td",{parentName:"tr",align:"left"},(0,r.kt)("inlineCode",{parentName:"td"},"Keccak[] object"))))),(0,r.kt)("p",null,(0,r.kt)("inlineCode",{parentName:"p"},"TxType")),(0,r.kt)("ul",null,(0,r.kt)("li",{parentName:"ul"},(0,r.kt)("a",{parentName:"li",href:"https://eips.ethereum.org/EIPS/eip-2718"},"EIP2718")," transaction type")))),(0,r.kt)("p",null,(0,r.kt)("a",{parentName:"p",href:"https://docs.nethermind.io/nethermind/ethereum-client/json-rpc/parity#parity_getblockreceipts"},"See also JSON RPC parity_getBlockReceipts")),(0,r.kt)("h2",{id:"paritynetpeers"},"parity.netPeers"),(0,r.kt)("p",null,"Returns connected peers. Peers with non-empty protocols have completed handshake."),(0,r.kt)("table",null,(0,r.kt)("thead",{parentName:"table"},(0,r.kt)("tr",{parentName:"thead"},(0,r.kt)("th",{parentName:"tr",align:"left"},"Invocation"))),(0,r.kt)("tbody",{parentName:"table"},(0,r.kt)("tr",{parentName:"tbody"},(0,r.kt)("td",{parentName:"tr",align:"left"},(0,r.kt)("inlineCode",{parentName:"td"},"parity.netPeers"))))),(0,r.kt)("table",null,(0,r.kt)("thead",{parentName:"table"},(0,r.kt)("tr",{parentName:"thead"},(0,r.kt)("th",{parentName:"tr",align:"left"},"This method doesn't have parameters.")))),(0,r.kt)("table",null,(0,r.kt)("thead",{parentName:"table"},(0,r.kt)("tr",{parentName:"thead"},(0,r.kt)("th",{parentName:"tr",align:"left"},"Returned type"),(0,r.kt)("th",{parentName:"tr",align:"left"},"Description"))),(0,r.kt)("tbody",{parentName:"table"},(0,r.kt)("tr",{parentName:"tbody"},(0,r.kt)("td",{parentName:"tr",align:"left"},(0,r.kt)("inlineCode",{parentName:"td"},"ParityNetPeers object")),(0,r.kt)("td",{parentName:"tr",align:"left"})))),(0,r.kt)(l.Z,{mdxType:"Tabs"},(0,r.kt)(i.Z,{label:"Request",value:"request",mdxType:"TabItem"},(0,r.kt)("pre",null,(0,r.kt)("code",{parentName:"pre",className:"language-yaml"},"parity.netPeers\n"))),(0,r.kt)(i.Z,{label:"Object",value:"objects",mdxType:"TabItem"},(0,r.kt)("p",null,(0,r.kt)("inlineCode",{parentName:"p"},"ParityNetPeers")),(0,r.kt)("table",null,(0,r.kt)("thead",{parentName:"table"},(0,r.kt)("tr",{parentName:"thead"},(0,r.kt)("th",{parentName:"tr",align:"left"},"Field name"),(0,r.kt)("th",{parentName:"tr",align:"left"},"Type"))),(0,r.kt)("tbody",{parentName:"table"},(0,r.kt)("tr",{parentName:"tbody"},(0,r.kt)("td",{parentName:"tr",align:"left"},"Active"),(0,r.kt)("td",{parentName:"tr",align:"left"},(0,r.kt)("inlineCode",{parentName:"td"},"Quantity"))),(0,r.kt)("tr",{parentName:"tbody"},(0,r.kt)("td",{parentName:"tr",align:"left"},"Connected"),(0,r.kt)("td",{parentName:"tr",align:"left"},(0,r.kt)("inlineCode",{parentName:"td"},"Quantity"))),(0,r.kt)("tr",{parentName:"tbody"},(0,r.kt)("td",{parentName:"tr",align:"left"},"Max"),(0,r.kt)("td",{parentName:"tr",align:"left"},(0,r.kt)("inlineCode",{parentName:"td"},"Quantity"))),(0,r.kt)("tr",{parentName:"tbody"},(0,r.kt)("td",{parentName:"tr",align:"left"},"Peers"),(0,r.kt)("td",{parentName:"tr",align:"left"},(0,r.kt)("inlineCode",{parentName:"td"},"PeerInfo[] object"))))),(0,r.kt)("p",null,(0,r.kt)("inlineCode",{parentName:"p"},"PeerInfo[]")),(0,r.kt)("table",null,(0,r.kt)("thead",{parentName:"table"},(0,r.kt)("tr",{parentName:"thead"},(0,r.kt)("th",{parentName:"tr",align:"left"},"Field name"),(0,r.kt)("th",{parentName:"tr",align:"left"},"Type"))),(0,r.kt)("tbody",{parentName:"table"},(0,r.kt)("tr",{parentName:"tbody"},(0,r.kt)("td",{parentName:"tr",align:"left"},"Id"),(0,r.kt)("td",{parentName:"tr",align:"left"},(0,r.kt)("inlineCode",{parentName:"td"},"String"))),(0,r.kt)("tr",{parentName:"tbody"},(0,r.kt)("td",{parentName:"tr",align:"left"},"Name"),(0,r.kt)("td",{parentName:"tr",align:"left"},(0,r.kt)("inlineCode",{parentName:"td"},"String"))),(0,r.kt)("tr",{parentName:"tbody"},(0,r.kt)("td",{parentName:"tr",align:"left"},"Caps"),(0,r.kt)("td",{parentName:"tr",align:"left"},(0,r.kt)("inlineCode",{parentName:"td"},"Array"))),(0,r.kt)("tr",{parentName:"tbody"},(0,r.kt)("td",{parentName:"tr",align:"left"},"Network"),(0,r.kt)("td",{parentName:"tr",align:"left"},(0,r.kt)("inlineCode",{parentName:"td"},"PeerNetworkInfo object"))),(0,r.kt)("tr",{parentName:"tbody"},(0,r.kt)("td",{parentName:"tr",align:"left"},"Protocols"),(0,r.kt)("td",{parentName:"tr",align:"left"},(0,r.kt)("inlineCode",{parentName:"td"},"Array"))))))),(0,r.kt)("p",null,(0,r.kt)("a",{parentName:"p",href:"https://docs.nethermind.io/nethermind/ethereum-client/json-rpc/parity#parity_netpeers"},"See also JSON RPC parity_netPeers")),(0,r.kt)("h2",{id:"paritypendingtransactions"},"parity.pendingTransactions"),(0,r.kt)("p",null,"Returns a list of transactions currently in the queue. If address is provided, returns transactions only with given\nsender address."),(0,r.kt)("table",null,(0,r.kt)("thead",{parentName:"table"},(0,r.kt)("tr",{parentName:"thead"},(0,r.kt)("th",{parentName:"tr",align:"left"},"Invocation"))),(0,r.kt)("tbody",{parentName:"table"},(0,r.kt)("tr",{parentName:"tbody"},(0,r.kt)("td",{parentName:"tr",align:"left"},(0,r.kt)("inlineCode",{parentName:"td"},"parity.pendingTransactions(address)"))))),(0,r.kt)("table",null,(0,r.kt)("thead",{parentName:"table"},(0,r.kt)("tr",{parentName:"thead"},(0,r.kt)("th",{parentName:"tr",align:"left"},"Parameter"),(0,r.kt)("th",{parentName:"tr",align:"left"},"Type"),(0,r.kt)("th",{parentName:"tr",align:"left"},"Description"))),(0,r.kt)("tbody",{parentName:"table"},(0,r.kt)("tr",{parentName:"tbody"},(0,r.kt)("td",{parentName:"tr",align:"left"},"address"),(0,r.kt)("td",{parentName:"tr",align:"left"},(0,r.kt)("inlineCode",{parentName:"td"},"Address")),(0,r.kt)("td",{parentName:"tr",align:"left"})))),(0,r.kt)("table",null,(0,r.kt)("thead",{parentName:"table"},(0,r.kt)("tr",{parentName:"thead"},(0,r.kt)("th",{parentName:"tr",align:"left"},"Returned type"),(0,r.kt)("th",{parentName:"tr",align:"left"},"Description"))),(0,r.kt)("tbody",{parentName:"table"},(0,r.kt)("tr",{parentName:"tbody"},(0,r.kt)("td",{parentName:"tr",align:"left"},(0,r.kt)("inlineCode",{parentName:"td"},"ParityTransaction object")),(0,r.kt)("td",{parentName:"tr",align:"left"})))),(0,r.kt)(l.Z,{mdxType:"Tabs"},(0,r.kt)(i.Z,{value:"request",label:"Request",mdxType:"TabItem"},(0,r.kt)("pre",null,(0,r.kt)("code",{parentName:"pre",className:"language-yaml"},'parity.pendingTransactions(["0x78467cada5f1883e79fcf0f3ebfa50abeec8c820"])\n'))),(0,r.kt)(i.Z,{value:"response",label:"Response",mdxType:"TabItem"},(0,r.kt)("pre",null,(0,r.kt)("code",{parentName:"pre",className:"language-yaml"},'{ "hash": "0x9372fe18622fd45569ef117644d4cda4af51d11bb3c72fa27690e78c9b0d7808","nonce": "0x11b55","blockHash": null,"blockNumber": null,"transactionIndex": null,"from": "0x89a3fc1d3c68f927be68d3de139980940a89fc80","to": "0x89a3fc1d3c68f927be68d3de139980940a89fc80","value": "0x0","gasPrice": "0x3b9aca08","gas": "0x7530","input": "0x2f47e6a5c13bb151cad6f7297ceb6a197a9be6fdb3acbcfe1df3cad362525932","raw": "0xf88683011b55843b9aca088275309489a3fc1d3c68f927be68d3de139980940a89fc8080a02f47e6a5c13bb151cad6f7297ceb6a197a9be6fdb3acbcfe1df3cad3625259322ba04cfe3030a781f8af08ebe69286a4fab707f00ce4e535c392ba8249527bdae5e5a002203d6802596ff141506437f7ae72b4391b2bdffafba45f8cb561cf5d24b456","creates": null,"publicKey": "0xf409402c0b151206bb98e1031630681df4c046f0c278f920174daa14a34549fa2da52016ca659c0fe254c542fc3034c5a8da9f4d145fec6150db5ed19b4bc7ce","chainId": 4,"condition": null,"r": "0x4cfe3030a781f8af08ebe69286a4fab707f00ce4e535c392ba8249527bdae5e5","s": "0x02203d6802596ff141506437f7ae72b4391b2bdffafba45f8cb561cf5d24b456","v": "0x2b","standardV": "0x0" }, (...)\n'))),(0,r.kt)(i.Z,{value:"objects",label:"Object",mdxType:"TabItem"},(0,r.kt)("p",null,(0,r.kt)("inlineCode",{parentName:"p"},"ParityTransaction")),(0,r.kt)("table",null,(0,r.kt)("thead",{parentName:"table"},(0,r.kt)("tr",{parentName:"thead"},(0,r.kt)("th",{parentName:"tr",align:"left"},"Field name"),(0,r.kt)("th",{parentName:"tr",align:"left"},"Type"))),(0,r.kt)("tbody",{parentName:"table"},(0,r.kt)("tr",{parentName:"tbody"},(0,r.kt)("td",{parentName:"tr",align:"left"},"Hash"),(0,r.kt)("td",{parentName:"tr",align:"left"},(0,r.kt)("inlineCode",{parentName:"td"},"Hash"))),(0,r.kt)("tr",{parentName:"tbody"},(0,r.kt)("td",{parentName:"tr",align:"left"},"Nonce"),(0,r.kt)("td",{parentName:"tr",align:"left"},(0,r.kt)("inlineCode",{parentName:"td"},"Quantity"))),(0,r.kt)("tr",{parentName:"tbody"},(0,r.kt)("td",{parentName:"tr",align:"left"},"BlockHash"),(0,r.kt)("td",{parentName:"tr",align:"left"},(0,r.kt)("inlineCode",{parentName:"td"},"Hash"))),(0,r.kt)("tr",{parentName:"tbody"},(0,r.kt)("td",{parentName:"tr",align:"left"},"BlockNumber"),(0,r.kt)("td",{parentName:"tr",align:"left"},(0,r.kt)("inlineCode",{parentName:"td"},"Quantity"))),(0,r.kt)("tr",{parentName:"tbody"},(0,r.kt)("td",{parentName:"tr",align:"left"},"TransactionIndex"),(0,r.kt)("td",{parentName:"tr",align:"left"},(0,r.kt)("inlineCode",{parentName:"td"},"Quantity"))),(0,r.kt)("tr",{parentName:"tbody"},(0,r.kt)("td",{parentName:"tr",align:"left"},"From"),(0,r.kt)("td",{parentName:"tr",align:"left"},(0,r.kt)("inlineCode",{parentName:"td"},"Address"))),(0,r.kt)("tr",{parentName:"tbody"},(0,r.kt)("td",{parentName:"tr",align:"left"},"To"),(0,r.kt)("td",{parentName:"tr",align:"left"},(0,r.kt)("inlineCode",{parentName:"td"},"Address"))),(0,r.kt)("tr",{parentName:"tbody"},(0,r.kt)("td",{parentName:"tr",align:"left"},"Value"),(0,r.kt)("td",{parentName:"tr",align:"left"},(0,r.kt)("inlineCode",{parentName:"td"},"Quantity"))),(0,r.kt)("tr",{parentName:"tbody"},(0,r.kt)("td",{parentName:"tr",align:"left"},"GasPrice"),(0,r.kt)("td",{parentName:"tr",align:"left"},(0,r.kt)("inlineCode",{parentName:"td"},"Quantity"))),(0,r.kt)("tr",{parentName:"tbody"},(0,r.kt)("td",{parentName:"tr",align:"left"},"Gas"),(0,r.kt)("td",{parentName:"tr",align:"left"},(0,r.kt)("inlineCode",{parentName:"td"},"Quantity"))),(0,r.kt)("tr",{parentName:"tbody"},(0,r.kt)("td",{parentName:"tr",align:"left"},"Input"),(0,r.kt)("td",{parentName:"tr",align:"left"},(0,r.kt)("inlineCode",{parentName:"td"},"Data"))),(0,r.kt)("tr",{parentName:"tbody"},(0,r.kt)("td",{parentName:"tr",align:"left"},"Raw"),(0,r.kt)("td",{parentName:"tr",align:"left"},(0,r.kt)("inlineCode",{parentName:"td"},"Data"))),(0,r.kt)("tr",{parentName:"tbody"},(0,r.kt)("td",{parentName:"tr",align:"left"},"Creates"),(0,r.kt)("td",{parentName:"tr",align:"left"},(0,r.kt)("inlineCode",{parentName:"td"},"Address"))),(0,r.kt)("tr",{parentName:"tbody"},(0,r.kt)("td",{parentName:"tr",align:"left"},"PublicKey"),(0,r.kt)("td",{parentName:"tr",align:"left"},(0,r.kt)("inlineCode",{parentName:"td"},"PublicKey object"))),(0,r.kt)("tr",{parentName:"tbody"},(0,r.kt)("td",{parentName:"tr",align:"left"},"ChainId"),(0,r.kt)("td",{parentName:"tr",align:"left"},(0,r.kt)("inlineCode",{parentName:"td"},"Quantity"))),(0,r.kt)("tr",{parentName:"tbody"},(0,r.kt)("td",{parentName:"tr",align:"left"},"Condition"),(0,r.kt)("td",{parentName:"tr",align:"left"},(0,r.kt)("inlineCode",{parentName:"td"},"Object"))),(0,r.kt)("tr",{parentName:"tbody"},(0,r.kt)("td",{parentName:"tr",align:"left"},"R"),(0,r.kt)("td",{parentName:"tr",align:"left"},(0,r.kt)("inlineCode",{parentName:"td"},"Data"))),(0,r.kt)("tr",{parentName:"tbody"},(0,r.kt)("td",{parentName:"tr",align:"left"},"S"),(0,r.kt)("td",{parentName:"tr",align:"left"},(0,r.kt)("inlineCode",{parentName:"td"},"Data"))),(0,r.kt)("tr",{parentName:"tbody"},(0,r.kt)("td",{parentName:"tr",align:"left"},"V"),(0,r.kt)("td",{parentName:"tr",align:"left"},(0,r.kt)("inlineCode",{parentName:"td"},"Quantity"))),(0,r.kt)("tr",{parentName:"tbody"},(0,r.kt)("td",{parentName:"tr",align:"left"},"StandardV"),(0,r.kt)("td",{parentName:"tr",align:"left"},(0,r.kt)("inlineCode",{parentName:"td"},"Quantity"))))),(0,r.kt)("p",null,(0,r.kt)("inlineCode",{parentName:"p"},"PublicKey")),(0,r.kt)("table",null,(0,r.kt)("thead",{parentName:"table"},(0,r.kt)("tr",{parentName:"thead"},(0,r.kt)("th",{parentName:"tr",align:"left"},"Field name"),(0,r.kt)("th",{parentName:"tr",align:"left"},"Type"))),(0,r.kt)("tbody",{parentName:"table"},(0,r.kt)("tr",{parentName:"tbody"},(0,r.kt)("td",{parentName:"tr",align:"left"},"Address"),(0,r.kt)("td",{parentName:"tr",align:"left"},(0,r.kt)("inlineCode",{parentName:"td"},"Address"))),(0,r.kt)("tr",{parentName:"tbody"},(0,r.kt)("td",{parentName:"tr",align:"left"},"Bytes"),(0,r.kt)("td",{parentName:"tr",align:"left"},(0,r.kt)("inlineCode",{parentName:"td"},"Data"))),(0,r.kt)("tr",{parentName:"tbody"},(0,r.kt)("td",{parentName:"tr",align:"left"},"PrefixedBytes"),(0,r.kt)("td",{parentName:"tr",align:"left"},(0,r.kt)("inlineCode",{parentName:"td"},"Data"))))))),(0,r.kt)("p",null,(0,r.kt)("a",{parentName:"p",href:"https://docs.nethermind.io/nethermind/ethereum-client/json-rpc/parity#parity_pendingtransactions"},"See also JSON RPC parity_pendingTransactions")),(0,r.kt)("h2",{id:"paritysetenginesigner"},"parity.setEngineSigner"),(0,r.kt)("p",null,"Sets an authority account for signing consensus messages."),(0,r.kt)("table",null,(0,r.kt)("thead",{parentName:"table"},(0,r.kt)("tr",{parentName:"thead"},(0,r.kt)("th",{parentName:"tr",align:"left"},"Invocation"))),(0,r.kt)("tbody",{parentName:"table"},(0,r.kt)("tr",{parentName:"tbody"},(0,r.kt)("td",{parentName:"tr",align:"left"},(0,r.kt)("inlineCode",{parentName:"td"},"parity.setEngineSigner(address, password)"))))),(0,r.kt)("table",null,(0,r.kt)("thead",{parentName:"table"},(0,r.kt)("tr",{parentName:"thead"},(0,r.kt)("th",{parentName:"tr",align:"left"},"Parameter"),(0,r.kt)("th",{parentName:"tr",align:"left"},"Type"),(0,r.kt)("th",{parentName:"tr",align:"left"},"Description"))),(0,r.kt)("tbody",{parentName:"table"},(0,r.kt)("tr",{parentName:"tbody"},(0,r.kt)("td",{parentName:"tr",align:"left"},"address"),(0,r.kt)("td",{parentName:"tr",align:"left"},(0,r.kt)("inlineCode",{parentName:"td"},"Address")),(0,r.kt)("td",{parentName:"tr",align:"left"})),(0,r.kt)("tr",{parentName:"tbody"},(0,r.kt)("td",{parentName:"tr",align:"left"},"password"),(0,r.kt)("td",{parentName:"tr",align:"left"},(0,r.kt)("inlineCode",{parentName:"td"},"String")),(0,r.kt)("td",{parentName:"tr",align:"left"})))),(0,r.kt)("table",null,(0,r.kt)("thead",{parentName:"table"},(0,r.kt)("tr",{parentName:"thead"},(0,r.kt)("th",{parentName:"tr",align:"left"},"Returned type"),(0,r.kt)("th",{parentName:"tr",align:"left"},"Description"))),(0,r.kt)("tbody",{parentName:"table"},(0,r.kt)("tr",{parentName:"tbody"},(0,r.kt)("td",{parentName:"tr",align:"left"},(0,r.kt)("inlineCode",{parentName:"td"},"Boolean")),(0,r.kt)("td",{parentName:"tr",align:"left"})))),(0,r.kt)(l.Z,{mdxType:"Tabs"},(0,r.kt)(i.Z,{label:"Request",value:"request",mdxType:"TabItem"},(0,r.kt)("pre",null,(0,r.kt)("code",{parentName:"pre",className:"language-yaml"},"parity.setEngineSigner(address, password)\n"))),(0,r.kt)(i.Z,{label:"Response",value:"response",mdxType:"TabItem"},(0,r.kt)("pre",null,(0,r.kt)("code",{parentName:"pre",className:"language-yaml"},"true\n")))),(0,r.kt)("p",null,(0,r.kt)("a",{parentName:"p",href:"https://docs.nethermind.io/nethermind/ethereum-client/json-rpc/parity#parity_setenginesigner"},"See also JSON RPC parity_setEngineSigner")),(0,r.kt)("h2",{id:"paritysetenginesignersecret"},"parity.setEngineSignerSecret"),(0,r.kt)("p",null,"Sets an authority account for signing consensus messages."),(0,r.kt)("table",null,(0,r.kt)("thead",{parentName:"table"},(0,r.kt)("tr",{parentName:"thead"},(0,r.kt)("th",{parentName:"tr",align:"left"},"Invocation"))),(0,r.kt)("tbody",{parentName:"table"},(0,r.kt)("tr",{parentName:"tbody"},(0,r.kt)("td",{parentName:"tr",align:"left"},(0,r.kt)("inlineCode",{parentName:"td"},"parity.setEngineSignerSecret(privateKey)"))))),(0,r.kt)("table",null,(0,r.kt)("thead",{parentName:"table"},(0,r.kt)("tr",{parentName:"thead"},(0,r.kt)("th",{parentName:"tr",align:"left"},"Parameter"),(0,r.kt)("th",{parentName:"tr",align:"left"},"Type"),(0,r.kt)("th",{parentName:"tr",align:"left"},"Description"))),(0,r.kt)("tbody",{parentName:"table"},(0,r.kt)("tr",{parentName:"tbody"},(0,r.kt)("td",{parentName:"tr",align:"left"},"privateKey"),(0,r.kt)("td",{parentName:"tr",align:"left"},(0,r.kt)("inlineCode",{parentName:"td"},"String")),(0,r.kt)("td",{parentName:"tr",align:"left"})))),(0,r.kt)("table",null,(0,r.kt)("thead",{parentName:"table"},(0,r.kt)("tr",{parentName:"thead"},(0,r.kt)("th",{parentName:"tr",align:"left"},"Returned type"),(0,r.kt)("th",{parentName:"tr",align:"left"},"Description"))),(0,r.kt)("tbody",{parentName:"table"},(0,r.kt)("tr",{parentName:"tbody"},(0,r.kt)("td",{parentName:"tr",align:"left"},(0,r.kt)("inlineCode",{parentName:"td"},"Boolean")),(0,r.kt)("td",{parentName:"tr",align:"left"})))),(0,r.kt)("pre",null,(0,r.kt)("code",{parentName:"pre",className:"language-yaml",metastring:'title="Example request of parity.setEngineSignerSecret"',title:'"Example',request:!0,of:!0,'parity.setEngineSignerSecret"':!0},"parity.setEngineSignerSecret(privateKey)\n")),(0,r.kt)("p",null,(0,r.kt)("a",{parentName:"p",href:"https://docs.nethermind.io/nethermind/ethereum-client/json-rpc/parity#parity_setenginesignersecret"},"See also JSON RPC parity_setEngineSignerSecret")))}c.isMDXComponent=!0}}]);