"use strict";(self.webpackChunknethermind_docs=self.webpackChunknethermind_docs||[]).push([[1465],{2711:(e,t,l)=>{l.r(t),l.d(t,{assets:()=>a,contentTitle:()=>c,default:()=>o,frontMatter:()=>d,metadata:()=>x,toc:()=>h});var n=l(5893),s=l(1151),r=l(4866),i=l(5162);const d={},c="parity",x={id:"utilities/cli/parity",title:"parity",description:"parity.clearEngineSigner",source:"@site/docs/utilities/cli/parity.md",sourceDirName:"utilities/cli",slug:"/utilities/cli/parity",permalink:"/docs/utilities/cli/parity",draft:!1,unlisted:!1,editUrl:"https://github.com/NethermindEth/docs/tree/main/docs/docs/utilities/cli/parity.md",tags:[],version:"current",lastUpdatedAt:1698878579,formattedLastUpdatedAt:"Nov 1, 2023",frontMatter:{},sidebar:"tutorialSidebar",previous:{title:"node",permalink:"/docs/utilities/cli/node"},next:{title:"personal",permalink:"/docs/utilities/cli/personal"}},a={},h=[{value:"parity.clearEngineSigner",id:"parityclearenginesigner",level:2},{value:"parity.enode",id:"parityenode",level:2},{value:"parity.getBlockReceipts",id:"paritygetblockreceipts",level:2},{value:"parity.netPeers",id:"paritynetpeers",level:2},{value:"parity.pendingTransactions",id:"paritypendingtransactions",level:2},{value:"parity.setEngineSigner",id:"paritysetenginesigner",level:2},{value:"parity.setEngineSignerSecret",id:"paritysetenginesignersecret",level:2}];function j(e){const t={a:"a",code:"code",h1:"h1",h2:"h2",li:"li",p:"p",pre:"pre",table:"table",tbody:"tbody",td:"td",th:"th",thead:"thead",tr:"tr",ul:"ul",...(0,s.a)(),...e.components};return(0,n.jsxs)(n.Fragment,{children:[(0,n.jsx)(t.h1,{id:"parity",children:"parity"}),"\n",(0,n.jsx)(t.h2,{id:"parityclearenginesigner",children:"parity.clearEngineSigner"}),"\n",(0,n.jsx)(t.p,{children:"Clears an authority account for signing consensus messages. Blocks will not be sealed."}),"\n",(0,n.jsxs)(t.table,{children:[(0,n.jsx)(t.thead,{children:(0,n.jsx)(t.tr,{children:(0,n.jsx)(t.th,{style:{textAlign:"left"},children:"Invocation"})})}),(0,n.jsx)(t.tbody,{children:(0,n.jsx)(t.tr,{children:(0,n.jsx)(t.td,{style:{textAlign:"left"},children:(0,n.jsx)(t.code,{children:"parity.clearEngineSigner()"})})})})]}),"\n",(0,n.jsx)(t.table,{children:(0,n.jsx)(t.thead,{children:(0,n.jsx)(t.tr,{children:(0,n.jsx)(t.th,{style:{textAlign:"left"},children:"This method doesn't have parameters."})})})}),"\n",(0,n.jsxs)(t.table,{children:[(0,n.jsx)(t.thead,{children:(0,n.jsxs)(t.tr,{children:[(0,n.jsx)(t.th,{style:{textAlign:"left"},children:"Returned type"}),(0,n.jsx)(t.th,{style:{textAlign:"left"},children:"Description"})]})}),(0,n.jsx)(t.tbody,{children:(0,n.jsxs)(t.tr,{children:[(0,n.jsx)(t.td,{style:{textAlign:"left"},children:(0,n.jsx)(t.code,{children:"Boolean"})}),(0,n.jsx)(t.td,{style:{textAlign:"left"}})]})})]}),"\n",(0,n.jsx)(t.pre,{children:(0,n.jsx)(t.code,{className:"language-yaml",metastring:'title="Example request of parity.clearEngineSigner" ',children:"parity.clearEngineSigner()\n"})}),"\n",(0,n.jsx)(t.p,{children:(0,n.jsx)(t.a,{href:"https://docs.nethermind.io/nethermind/ethereum-client/json-rpc/parity#parity_clearenginesigner",children:"See also JSON RPC parity_clearEngineSigner"})}),"\n",(0,n.jsx)(t.h2,{id:"parityenode",children:"parity.enode"}),"\n",(0,n.jsx)(t.p,{children:"Returns the node enode URI."}),"\n",(0,n.jsxs)(t.table,{children:[(0,n.jsx)(t.thead,{children:(0,n.jsx)(t.tr,{children:(0,n.jsx)(t.th,{style:{textAlign:"left"},children:"Invocation"})})}),(0,n.jsx)(t.tbody,{children:(0,n.jsx)(t.tr,{children:(0,n.jsx)(t.td,{style:{textAlign:"left"},children:(0,n.jsx)(t.code,{children:"parity.enode"})})})})]}),"\n",(0,n.jsx)(t.table,{children:(0,n.jsx)(t.thead,{children:(0,n.jsx)(t.tr,{children:(0,n.jsx)(t.th,{style:{textAlign:"left"},children:"This method doesn't have parameters."})})})}),"\n",(0,n.jsxs)(t.table,{children:[(0,n.jsx)(t.thead,{children:(0,n.jsxs)(t.tr,{children:[(0,n.jsx)(t.th,{style:{textAlign:"left"},children:"Returned type"}),(0,n.jsx)(t.th,{style:{textAlign:"left"},children:"Description"})]})}),(0,n.jsx)(t.tbody,{children:(0,n.jsxs)(t.tr,{children:[(0,n.jsx)(t.td,{style:{textAlign:"left"},children:(0,n.jsx)(t.code,{children:"String"})}),(0,n.jsx)(t.td,{style:{textAlign:"left"}})]})})]}),"\n",(0,n.jsxs)(r.Z,{children:[(0,n.jsx)(i.Z,{label:"Request",value:"request",children:(0,n.jsx)(t.pre,{children:(0,n.jsx)(t.code,{className:"language-yaml",children:"parity.enode\n"})})}),(0,n.jsx)(i.Z,{label:"Response",value:"response",children:(0,n.jsx)(t.pre,{children:(0,n.jsx)(t.code,{className:"language-yaml",children:"enode://a9cfa3cb16b537e131b0f141b5ef0c0ab9bf0dbec7799c3fc7bf8a974ff3e74e9b3258951b285dfed07ab395049bcd65fed96116bb92561612682551ec458497@18.193.43.58:30303\n"})})})]}),"\n",(0,n.jsx)(t.p,{children:(0,n.jsx)(t.a,{href:"https://docs.nethermind.io/nethermind/ethereum-client/json-rpc/parity#parity_enode",children:"See also JSON RPC parity_enode"})}),"\n",(0,n.jsx)(t.h2,{id:"paritygetblockreceipts",children:"parity.getBlockReceipts"}),"\n",(0,n.jsx)(t.p,{children:"Get receipts from all transactions from particular block, more efficient than fetching the receipts one-by-one."}),"\n",(0,n.jsxs)(t.table,{children:[(0,n.jsx)(t.thead,{children:(0,n.jsx)(t.tr,{children:(0,n.jsx)(t.th,{style:{textAlign:"left"},children:"Invocation"})})}),(0,n.jsx)(t.tbody,{children:(0,n.jsx)(t.tr,{children:(0,n.jsx)(t.td,{style:{textAlign:"left"},children:(0,n.jsx)(t.code,{children:"parity.getBlockReceipts(blockParameter)"})})})})]}),"\n",(0,n.jsxs)(t.table,{children:[(0,n.jsx)(t.thead,{children:(0,n.jsxs)(t.tr,{children:[(0,n.jsx)(t.th,{style:{textAlign:"left"},children:"Parameter"}),(0,n.jsx)(t.th,{style:{textAlign:"left"},children:"Type"}),(0,n.jsx)(t.th,{style:{textAlign:"left"},children:"Description"})]})}),(0,n.jsx)(t.tbody,{children:(0,n.jsxs)(t.tr,{children:[(0,n.jsx)(t.td,{style:{textAlign:"left"},children:"blockParameter"}),(0,n.jsx)(t.td,{style:{textAlign:"left"},children:(0,n.jsx)(t.code,{children:"BlockParameter object"})}),(0,n.jsx)(t.td,{style:{textAlign:"left"}})]})})]}),"\n",(0,n.jsxs)(t.table,{children:[(0,n.jsx)(t.thead,{children:(0,n.jsxs)(t.tr,{children:[(0,n.jsx)(t.th,{style:{textAlign:"left"},children:"Returned type"}),(0,n.jsx)(t.th,{style:{textAlign:"left"},children:"Description"})]})}),(0,n.jsx)(t.tbody,{children:(0,n.jsxs)(t.tr,{children:[(0,n.jsx)(t.td,{style:{textAlign:"left"},children:(0,n.jsx)(t.code,{children:"ReceiptForRpc object"})}),(0,n.jsx)(t.td,{style:{textAlign:"left"}})]})})]}),"\n",(0,n.jsxs)(r.Z,{children:[(0,n.jsx)(i.Z,{value:"request",label:"Request",children:(0,n.jsx)(t.pre,{children:(0,n.jsx)(t.code,{className:"language-yaml",children:"parity.getBlockReceipts(latest)\n"})})}),(0,n.jsx)(i.Z,{value:"response",label:"Response",children:(0,n.jsx)(t.pre,{children:(0,n.jsx)(t.code,{className:"language-yaml",children:'{ "transactionHash": "0x5bea2e9354f63960beaf02942e7c791e61ae47ce6952115afcb3d7fbd5b8043b","transactionIndex": "0x2","blockHash": "0x31fda0834473452ad7df17e351bb540294fe9cf9752472468851f6b3a2c5f5aa","blockNumber": "0x88de36","cumulativeGasUsed": "0x50e46","gasUsed": "0x5208","from": "0xdd078bc60e500d379eaf30fc8658661ea0f2608a","to": "0x5aab44fdc254f247dcb7ad89f248e7da346081d5","contractAddress": null,"logs": [ ],"logsBloom": "0x00000000000000000000000000000000000000000000000000000000000000000000000000000000000000000000000000000000000000000000000000000000000000000000000000000000000000000000000000000000000000000000000000000000000000000000000000000000000000000000000000000000000000000000000000000000000000000000000000000000000000000000000000000000000000000000000000000000000000000000000000000000000000000000000000000000000000000000000000000000000000000000000000000000000000000000000000000000000000000000000000000000000000000000000000000000","status": "0x1","type": "0x0" }, (...)\n'})})}),(0,n.jsxs)(i.Z,{value:"objects",label:"Object",children:[(0,n.jsx)(t.p,{children:(0,n.jsx)(t.code,{children:"BlockParameter"})}),(0,n.jsxs)(t.table,{children:[(0,n.jsx)(t.thead,{children:(0,n.jsxs)(t.tr,{children:[(0,n.jsx)(t.th,{style:{textAlign:"left"},children:"Field name"}),(0,n.jsx)(t.th,{style:{textAlign:"left"},children:"Type"})]})}),(0,n.jsxs)(t.tbody,{children:[(0,n.jsxs)(t.tr,{children:[(0,n.jsx)(t.td,{style:{textAlign:"left"},children:"Type"}),(0,n.jsx)(t.td,{style:{textAlign:"left"},children:(0,n.jsx)(t.code,{children:"BlockParameterType object"})})]}),(0,n.jsxs)(t.tr,{children:[(0,n.jsx)(t.td,{style:{textAlign:"left"},children:"BlockNumber"}),(0,n.jsx)(t.td,{style:{textAlign:"left"},children:(0,n.jsx)(t.code,{children:"Quantity"})})]}),(0,n.jsxs)(t.tr,{children:[(0,n.jsx)(t.td,{style:{textAlign:"left"},children:"BlockHash"}),(0,n.jsx)(t.td,{style:{textAlign:"left"},children:(0,n.jsx)(t.code,{children:"Hash"})})]}),(0,n.jsxs)(t.tr,{children:[(0,n.jsx)(t.td,{style:{textAlign:"left"},children:"RequireCanonical"}),(0,n.jsx)(t.td,{style:{textAlign:"left"},children:(0,n.jsx)(t.code,{children:"Boolean"})})]})]})]}),(0,n.jsx)(t.p,{children:(0,n.jsx)(t.code,{children:"BlockParameterType"})}),(0,n.jsxs)(t.ul,{children:["\n",(0,n.jsxs)(t.li,{children:[(0,n.jsx)(t.code,{children:"Quantity"})," or ",(0,n.jsx)(t.code,{children:"String"})," (latest, earliest, pending)"]}),"\n"]}),(0,n.jsx)(t.p,{children:(0,n.jsx)(t.code,{children:"ReceiptForRpc"})}),(0,n.jsxs)(t.table,{children:[(0,n.jsx)(t.thead,{children:(0,n.jsxs)(t.tr,{children:[(0,n.jsx)(t.th,{style:{textAlign:"left"},children:"Field name"}),(0,n.jsx)(t.th,{style:{textAlign:"left"},children:"Type"})]})}),(0,n.jsxs)(t.tbody,{children:[(0,n.jsxs)(t.tr,{children:[(0,n.jsx)(t.td,{style:{textAlign:"left"},children:"TransactionHash"}),(0,n.jsx)(t.td,{style:{textAlign:"left"},children:(0,n.jsx)(t.code,{children:"Hash"})})]}),(0,n.jsxs)(t.tr,{children:[(0,n.jsx)(t.td,{style:{textAlign:"left"},children:"TransactionIndex"}),(0,n.jsx)(t.td,{style:{textAlign:"left"},children:(0,n.jsx)(t.code,{children:"Quantity"})})]}),(0,n.jsxs)(t.tr,{children:[(0,n.jsx)(t.td,{style:{textAlign:"left"},children:"BlockHash"}),(0,n.jsx)(t.td,{style:{textAlign:"left"},children:(0,n.jsx)(t.code,{children:"Hash"})})]}),(0,n.jsxs)(t.tr,{children:[(0,n.jsx)(t.td,{style:{textAlign:"left"},children:"BlockNumber"}),(0,n.jsx)(t.td,{style:{textAlign:"left"},children:(0,n.jsx)(t.code,{children:"Quantity"})})]}),(0,n.jsxs)(t.tr,{children:[(0,n.jsx)(t.td,{style:{textAlign:"left"},children:"CumulativeGasUsed"}),(0,n.jsx)(t.td,{style:{textAlign:"left"},children:(0,n.jsx)(t.code,{children:"Quantity"})})]}),(0,n.jsxs)(t.tr,{children:[(0,n.jsx)(t.td,{style:{textAlign:"left"},children:"GasUsed"}),(0,n.jsx)(t.td,{style:{textAlign:"left"},children:(0,n.jsx)(t.code,{children:"Quantity"})})]}),(0,n.jsxs)(t.tr,{children:[(0,n.jsx)(t.td,{style:{textAlign:"left"},children:"DataGasUsed"}),(0,n.jsx)(t.td,{style:{textAlign:"left"},children:(0,n.jsx)(t.code,{children:"Quantity"})})]}),(0,n.jsxs)(t.tr,{children:[(0,n.jsx)(t.td,{style:{textAlign:"left"},children:"DataGasPrice"}),(0,n.jsx)(t.td,{style:{textAlign:"left"},children:(0,n.jsx)(t.code,{children:"Quantity"})})]}),(0,n.jsxs)(t.tr,{children:[(0,n.jsx)(t.td,{style:{textAlign:"left"},children:"EffectiveGasPrice"}),(0,n.jsx)(t.td,{style:{textAlign:"left"},children:(0,n.jsx)(t.code,{children:"Quantity"})})]}),(0,n.jsxs)(t.tr,{children:[(0,n.jsx)(t.td,{style:{textAlign:"left"},children:"From"}),(0,n.jsx)(t.td,{style:{textAlign:"left"},children:(0,n.jsx)(t.code,{children:"Address"})})]}),(0,n.jsxs)(t.tr,{children:[(0,n.jsx)(t.td,{style:{textAlign:"left"},children:"To"}),(0,n.jsx)(t.td,{style:{textAlign:"left"},children:(0,n.jsx)(t.code,{children:"Address"})})]}),(0,n.jsxs)(t.tr,{children:[(0,n.jsx)(t.td,{style:{textAlign:"left"},children:"ContractAddress"}),(0,n.jsx)(t.td,{style:{textAlign:"left"},children:(0,n.jsx)(t.code,{children:"Address"})})]}),(0,n.jsxs)(t.tr,{children:[(0,n.jsx)(t.td,{style:{textAlign:"left"},children:"Logs"}),(0,n.jsx)(t.td,{style:{textAlign:"left"},children:(0,n.jsx)(t.code,{children:"LogEntryForRpc[] object"})})]}),(0,n.jsxs)(t.tr,{children:[(0,n.jsx)(t.td,{style:{textAlign:"left"},children:"LogsBloom"}),(0,n.jsx)(t.td,{style:{textAlign:"left"},children:(0,n.jsx)(t.code,{children:"Bloom Object"})})]}),(0,n.jsxs)(t.tr,{children:[(0,n.jsx)(t.td,{style:{textAlign:"left"},children:"Root"}),(0,n.jsx)(t.td,{style:{textAlign:"left"},children:(0,n.jsx)(t.code,{children:"Hash"})})]}),(0,n.jsxs)(t.tr,{children:[(0,n.jsx)(t.td,{style:{textAlign:"left"},children:"Status"}),(0,n.jsx)(t.td,{style:{textAlign:"left"},children:(0,n.jsx)(t.code,{children:"Quantity"})})]}),(0,n.jsxs)(t.tr,{children:[(0,n.jsx)(t.td,{style:{textAlign:"left"},children:"Error"}),(0,n.jsx)(t.td,{style:{textAlign:"left"},children:(0,n.jsx)(t.code,{children:"String"})})]}),(0,n.jsxs)(t.tr,{children:[(0,n.jsx)(t.td,{style:{textAlign:"left"},children:"Type"}),(0,n.jsx)(t.td,{style:{textAlign:"left"},children:(0,n.jsx)(t.code,{children:"TxType object"})})]})]})]}),(0,n.jsx)(t.p,{children:(0,n.jsx)(t.code,{children:"LogEntryForRpc[]"})}),(0,n.jsxs)(t.table,{children:[(0,n.jsx)(t.thead,{children:(0,n.jsxs)(t.tr,{children:[(0,n.jsx)(t.th,{style:{textAlign:"left"},children:"Field name"}),(0,n.jsx)(t.th,{style:{textAlign:"left"},children:"Type"})]})}),(0,n.jsxs)(t.tbody,{children:[(0,n.jsxs)(t.tr,{children:[(0,n.jsx)(t.td,{style:{textAlign:"left"},children:"Removed"}),(0,n.jsx)(t.td,{style:{textAlign:"left"},children:(0,n.jsx)(t.code,{children:"Boolean"})})]}),(0,n.jsxs)(t.tr,{children:[(0,n.jsx)(t.td,{style:{textAlign:"left"},children:"LogIndex"}),(0,n.jsx)(t.td,{style:{textAlign:"left"},children:(0,n.jsx)(t.code,{children:"Quantity"})})]}),(0,n.jsxs)(t.tr,{children:[(0,n.jsx)(t.td,{style:{textAlign:"left"},children:"TransactionIndex"}),(0,n.jsx)(t.td,{style:{textAlign:"left"},children:(0,n.jsx)(t.code,{children:"Quantity"})})]}),(0,n.jsxs)(t.tr,{children:[(0,n.jsx)(t.td,{style:{textAlign:"left"},children:"TransactionHash"}),(0,n.jsx)(t.td,{style:{textAlign:"left"},children:(0,n.jsx)(t.code,{children:"Hash"})})]}),(0,n.jsxs)(t.tr,{children:[(0,n.jsx)(t.td,{style:{textAlign:"left"},children:"BlockHash"}),(0,n.jsx)(t.td,{style:{textAlign:"left"},children:(0,n.jsx)(t.code,{children:"Hash"})})]}),(0,n.jsxs)(t.tr,{children:[(0,n.jsx)(t.td,{style:{textAlign:"left"},children:"BlockNumber"}),(0,n.jsx)(t.td,{style:{textAlign:"left"},children:(0,n.jsx)(t.code,{children:"Quantity"})})]}),(0,n.jsxs)(t.tr,{children:[(0,n.jsx)(t.td,{style:{textAlign:"left"},children:"Address"}),(0,n.jsx)(t.td,{style:{textAlign:"left"},children:(0,n.jsx)(t.code,{children:"Address"})})]}),(0,n.jsxs)(t.tr,{children:[(0,n.jsx)(t.td,{style:{textAlign:"left"},children:"Data"}),(0,n.jsx)(t.td,{style:{textAlign:"left"},children:(0,n.jsx)(t.code,{children:"Data"})})]}),(0,n.jsxs)(t.tr,{children:[(0,n.jsx)(t.td,{style:{textAlign:"left"},children:"Topics"}),(0,n.jsx)(t.td,{style:{textAlign:"left"},children:(0,n.jsx)(t.code,{children:"Keccak[] object"})})]})]})]}),(0,n.jsx)(t.p,{children:(0,n.jsx)(t.code,{children:"TxType"})}),(0,n.jsxs)(t.ul,{children:["\n",(0,n.jsxs)(t.li,{children:[(0,n.jsx)(t.a,{href:"https://eips.ethereum.org/EIPS/eip-2718",children:"EIP2718"})," transaction type"]}),"\n"]})]})]}),"\n",(0,n.jsx)(t.p,{children:(0,n.jsx)(t.a,{href:"https://docs.nethermind.io/nethermind/ethereum-client/json-rpc/parity#parity_getblockreceipts",children:"See also JSON RPC parity_getBlockReceipts"})}),"\n",(0,n.jsx)(t.h2,{id:"paritynetpeers",children:"parity.netPeers"}),"\n",(0,n.jsx)(t.p,{children:"Returns connected peers. Peers with non-empty protocols have completed handshake."}),"\n",(0,n.jsxs)(t.table,{children:[(0,n.jsx)(t.thead,{children:(0,n.jsx)(t.tr,{children:(0,n.jsx)(t.th,{style:{textAlign:"left"},children:"Invocation"})})}),(0,n.jsx)(t.tbody,{children:(0,n.jsx)(t.tr,{children:(0,n.jsx)(t.td,{style:{textAlign:"left"},children:(0,n.jsx)(t.code,{children:"parity.netPeers"})})})})]}),"\n",(0,n.jsx)(t.table,{children:(0,n.jsx)(t.thead,{children:(0,n.jsx)(t.tr,{children:(0,n.jsx)(t.th,{style:{textAlign:"left"},children:"This method doesn't have parameters."})})})}),"\n",(0,n.jsxs)(t.table,{children:[(0,n.jsx)(t.thead,{children:(0,n.jsxs)(t.tr,{children:[(0,n.jsx)(t.th,{style:{textAlign:"left"},children:"Returned type"}),(0,n.jsx)(t.th,{style:{textAlign:"left"},children:"Description"})]})}),(0,n.jsx)(t.tbody,{children:(0,n.jsxs)(t.tr,{children:[(0,n.jsx)(t.td,{style:{textAlign:"left"},children:(0,n.jsx)(t.code,{children:"ParityNetPeers object"})}),(0,n.jsx)(t.td,{style:{textAlign:"left"}})]})})]}),"\n",(0,n.jsxs)(r.Z,{children:[(0,n.jsx)(i.Z,{label:"Request",value:"request",children:(0,n.jsx)(t.pre,{children:(0,n.jsx)(t.code,{className:"language-yaml",children:"parity.netPeers\n"})})}),(0,n.jsxs)(i.Z,{label:"Object",value:"objects",children:[(0,n.jsx)(t.p,{children:(0,n.jsx)(t.code,{children:"ParityNetPeers"})}),(0,n.jsxs)(t.table,{children:[(0,n.jsx)(t.thead,{children:(0,n.jsxs)(t.tr,{children:[(0,n.jsx)(t.th,{style:{textAlign:"left"},children:"Field name"}),(0,n.jsx)(t.th,{style:{textAlign:"left"},children:"Type"})]})}),(0,n.jsxs)(t.tbody,{children:[(0,n.jsxs)(t.tr,{children:[(0,n.jsx)(t.td,{style:{textAlign:"left"},children:"Active"}),(0,n.jsx)(t.td,{style:{textAlign:"left"},children:(0,n.jsx)(t.code,{children:"Quantity"})})]}),(0,n.jsxs)(t.tr,{children:[(0,n.jsx)(t.td,{style:{textAlign:"left"},children:"Connected"}),(0,n.jsx)(t.td,{style:{textAlign:"left"},children:(0,n.jsx)(t.code,{children:"Quantity"})})]}),(0,n.jsxs)(t.tr,{children:[(0,n.jsx)(t.td,{style:{textAlign:"left"},children:"Max"}),(0,n.jsx)(t.td,{style:{textAlign:"left"},children:(0,n.jsx)(t.code,{children:"Quantity"})})]}),(0,n.jsxs)(t.tr,{children:[(0,n.jsx)(t.td,{style:{textAlign:"left"},children:"Peers"}),(0,n.jsx)(t.td,{style:{textAlign:"left"},children:(0,n.jsx)(t.code,{children:"PeerInfo[] object"})})]})]})]}),(0,n.jsx)(t.p,{children:(0,n.jsx)(t.code,{children:"PeerInfo[]"})}),(0,n.jsxs)(t.table,{children:[(0,n.jsx)(t.thead,{children:(0,n.jsxs)(t.tr,{children:[(0,n.jsx)(t.th,{style:{textAlign:"left"},children:"Field name"}),(0,n.jsx)(t.th,{style:{textAlign:"left"},children:"Type"})]})}),(0,n.jsxs)(t.tbody,{children:[(0,n.jsxs)(t.tr,{children:[(0,n.jsx)(t.td,{style:{textAlign:"left"},children:"Id"}),(0,n.jsx)(t.td,{style:{textAlign:"left"},children:(0,n.jsx)(t.code,{children:"String"})})]}),(0,n.jsxs)(t.tr,{children:[(0,n.jsx)(t.td,{style:{textAlign:"left"},children:"Name"}),(0,n.jsx)(t.td,{style:{textAlign:"left"},children:(0,n.jsx)(t.code,{children:"String"})})]}),(0,n.jsxs)(t.tr,{children:[(0,n.jsx)(t.td,{style:{textAlign:"left"},children:"Caps"}),(0,n.jsx)(t.td,{style:{textAlign:"left"},children:(0,n.jsx)(t.code,{children:"Array"})})]}),(0,n.jsxs)(t.tr,{children:[(0,n.jsx)(t.td,{style:{textAlign:"left"},children:"Network"}),(0,n.jsx)(t.td,{style:{textAlign:"left"},children:(0,n.jsx)(t.code,{children:"PeerNetworkInfo object"})})]}),(0,n.jsxs)(t.tr,{children:[(0,n.jsx)(t.td,{style:{textAlign:"left"},children:"Protocols"}),(0,n.jsx)(t.td,{style:{textAlign:"left"},children:(0,n.jsx)(t.code,{children:"Array"})})]})]})]})]})]}),"\n",(0,n.jsx)(t.p,{children:(0,n.jsx)(t.a,{href:"https://docs.nethermind.io/nethermind/ethereum-client/json-rpc/parity#parity_netpeers",children:"See also JSON RPC parity_netPeers"})}),"\n",(0,n.jsx)(t.h2,{id:"paritypendingtransactions",children:"parity.pendingTransactions"}),"\n",(0,n.jsx)(t.p,{children:"Returns a list of transactions currently in the queue. If address is provided, returns transactions only with given\nsender address."}),"\n",(0,n.jsxs)(t.table,{children:[(0,n.jsx)(t.thead,{children:(0,n.jsx)(t.tr,{children:(0,n.jsx)(t.th,{style:{textAlign:"left"},children:"Invocation"})})}),(0,n.jsx)(t.tbody,{children:(0,n.jsx)(t.tr,{children:(0,n.jsx)(t.td,{style:{textAlign:"left"},children:(0,n.jsx)(t.code,{children:"parity.pendingTransactions(address)"})})})})]}),"\n",(0,n.jsxs)(t.table,{children:[(0,n.jsx)(t.thead,{children:(0,n.jsxs)(t.tr,{children:[(0,n.jsx)(t.th,{style:{textAlign:"left"},children:"Parameter"}),(0,n.jsx)(t.th,{style:{textAlign:"left"},children:"Type"}),(0,n.jsx)(t.th,{style:{textAlign:"left"},children:"Description"})]})}),(0,n.jsx)(t.tbody,{children:(0,n.jsxs)(t.tr,{children:[(0,n.jsx)(t.td,{style:{textAlign:"left"},children:"address"}),(0,n.jsx)(t.td,{style:{textAlign:"left"},children:(0,n.jsx)(t.code,{children:"Address"})}),(0,n.jsx)(t.td,{style:{textAlign:"left"}})]})})]}),"\n",(0,n.jsxs)(t.table,{children:[(0,n.jsx)(t.thead,{children:(0,n.jsxs)(t.tr,{children:[(0,n.jsx)(t.th,{style:{textAlign:"left"},children:"Returned type"}),(0,n.jsx)(t.th,{style:{textAlign:"left"},children:"Description"})]})}),(0,n.jsx)(t.tbody,{children:(0,n.jsxs)(t.tr,{children:[(0,n.jsx)(t.td,{style:{textAlign:"left"},children:(0,n.jsx)(t.code,{children:"ParityTransaction object"})}),(0,n.jsx)(t.td,{style:{textAlign:"left"}})]})})]}),"\n",(0,n.jsxs)(r.Z,{children:[(0,n.jsx)(i.Z,{value:"request",label:"Request",children:(0,n.jsx)(t.pre,{children:(0,n.jsx)(t.code,{className:"language-yaml",children:'parity.pendingTransactions(["0x78467cada5f1883e79fcf0f3ebfa50abeec8c820"])\n'})})}),(0,n.jsx)(i.Z,{value:"response",label:"Response",children:(0,n.jsx)(t.pre,{children:(0,n.jsx)(t.code,{className:"language-yaml",children:'{ "hash": "0x9372fe18622fd45569ef117644d4cda4af51d11bb3c72fa27690e78c9b0d7808","nonce": "0x11b55","blockHash": null,"blockNumber": null,"transactionIndex": null,"from": "0x89a3fc1d3c68f927be68d3de139980940a89fc80","to": "0x89a3fc1d3c68f927be68d3de139980940a89fc80","value": "0x0","gasPrice": "0x3b9aca08","gas": "0x7530","input": "0x2f47e6a5c13bb151cad6f7297ceb6a197a9be6fdb3acbcfe1df3cad362525932","raw": "0xf88683011b55843b9aca088275309489a3fc1d3c68f927be68d3de139980940a89fc8080a02f47e6a5c13bb151cad6f7297ceb6a197a9be6fdb3acbcfe1df3cad3625259322ba04cfe3030a781f8af08ebe69286a4fab707f00ce4e535c392ba8249527bdae5e5a002203d6802596ff141506437f7ae72b4391b2bdffafba45f8cb561cf5d24b456","creates": null,"publicKey": "0xf409402c0b151206bb98e1031630681df4c046f0c278f920174daa14a34549fa2da52016ca659c0fe254c542fc3034c5a8da9f4d145fec6150db5ed19b4bc7ce","chainId": 4,"condition": null,"r": "0x4cfe3030a781f8af08ebe69286a4fab707f00ce4e535c392ba8249527bdae5e5","s": "0x02203d6802596ff141506437f7ae72b4391b2bdffafba45f8cb561cf5d24b456","v": "0x2b","standardV": "0x0" }, (...)\n'})})}),(0,n.jsxs)(i.Z,{value:"objects",label:"Object",children:[(0,n.jsx)(t.p,{children:(0,n.jsx)(t.code,{children:"ParityTransaction"})}),(0,n.jsxs)(t.table,{children:[(0,n.jsx)(t.thead,{children:(0,n.jsxs)(t.tr,{children:[(0,n.jsx)(t.th,{style:{textAlign:"left"},children:"Field name"}),(0,n.jsx)(t.th,{style:{textAlign:"left"},children:"Type"})]})}),(0,n.jsxs)(t.tbody,{children:[(0,n.jsxs)(t.tr,{children:[(0,n.jsx)(t.td,{style:{textAlign:"left"},children:"Hash"}),(0,n.jsx)(t.td,{style:{textAlign:"left"},children:(0,n.jsx)(t.code,{children:"Hash"})})]}),(0,n.jsxs)(t.tr,{children:[(0,n.jsx)(t.td,{style:{textAlign:"left"},children:"Nonce"}),(0,n.jsx)(t.td,{style:{textAlign:"left"},children:(0,n.jsx)(t.code,{children:"Quantity"})})]}),(0,n.jsxs)(t.tr,{children:[(0,n.jsx)(t.td,{style:{textAlign:"left"},children:"BlockHash"}),(0,n.jsx)(t.td,{style:{textAlign:"left"},children:(0,n.jsx)(t.code,{children:"Hash"})})]}),(0,n.jsxs)(t.tr,{children:[(0,n.jsx)(t.td,{style:{textAlign:"left"},children:"BlockNumber"}),(0,n.jsx)(t.td,{style:{textAlign:"left"},children:(0,n.jsx)(t.code,{children:"Quantity"})})]}),(0,n.jsxs)(t.tr,{children:[(0,n.jsx)(t.td,{style:{textAlign:"left"},children:"TransactionIndex"}),(0,n.jsx)(t.td,{style:{textAlign:"left"},children:(0,n.jsx)(t.code,{children:"Quantity"})})]}),(0,n.jsxs)(t.tr,{children:[(0,n.jsx)(t.td,{style:{textAlign:"left"},children:"From"}),(0,n.jsx)(t.td,{style:{textAlign:"left"},children:(0,n.jsx)(t.code,{children:"Address"})})]}),(0,n.jsxs)(t.tr,{children:[(0,n.jsx)(t.td,{style:{textAlign:"left"},children:"To"}),(0,n.jsx)(t.td,{style:{textAlign:"left"},children:(0,n.jsx)(t.code,{children:"Address"})})]}),(0,n.jsxs)(t.tr,{children:[(0,n.jsx)(t.td,{style:{textAlign:"left"},children:"Value"}),(0,n.jsx)(t.td,{style:{textAlign:"left"},children:(0,n.jsx)(t.code,{children:"Quantity"})})]}),(0,n.jsxs)(t.tr,{children:[(0,n.jsx)(t.td,{style:{textAlign:"left"},children:"GasPrice"}),(0,n.jsx)(t.td,{style:{textAlign:"left"},children:(0,n.jsx)(t.code,{children:"Quantity"})})]}),(0,n.jsxs)(t.tr,{children:[(0,n.jsx)(t.td,{style:{textAlign:"left"},children:"Gas"}),(0,n.jsx)(t.td,{style:{textAlign:"left"},children:(0,n.jsx)(t.code,{children:"Quantity"})})]}),(0,n.jsxs)(t.tr,{children:[(0,n.jsx)(t.td,{style:{textAlign:"left"},children:"Input"}),(0,n.jsx)(t.td,{style:{textAlign:"left"},children:(0,n.jsx)(t.code,{children:"Data"})})]}),(0,n.jsxs)(t.tr,{children:[(0,n.jsx)(t.td,{style:{textAlign:"left"},children:"Raw"}),(0,n.jsx)(t.td,{style:{textAlign:"left"},children:(0,n.jsx)(t.code,{children:"Data"})})]}),(0,n.jsxs)(t.tr,{children:[(0,n.jsx)(t.td,{style:{textAlign:"left"},children:"Creates"}),(0,n.jsx)(t.td,{style:{textAlign:"left"},children:(0,n.jsx)(t.code,{children:"Address"})})]}),(0,n.jsxs)(t.tr,{children:[(0,n.jsx)(t.td,{style:{textAlign:"left"},children:"PublicKey"}),(0,n.jsx)(t.td,{style:{textAlign:"left"},children:(0,n.jsx)(t.code,{children:"PublicKey object"})})]}),(0,n.jsxs)(t.tr,{children:[(0,n.jsx)(t.td,{style:{textAlign:"left"},children:"ChainId"}),(0,n.jsx)(t.td,{style:{textAlign:"left"},children:(0,n.jsx)(t.code,{children:"Quantity"})})]}),(0,n.jsxs)(t.tr,{children:[(0,n.jsx)(t.td,{style:{textAlign:"left"},children:"Condition"}),(0,n.jsx)(t.td,{style:{textAlign:"left"},children:(0,n.jsx)(t.code,{children:"Object"})})]}),(0,n.jsxs)(t.tr,{children:[(0,n.jsx)(t.td,{style:{textAlign:"left"},children:"R"}),(0,n.jsx)(t.td,{style:{textAlign:"left"},children:(0,n.jsx)(t.code,{children:"Data"})})]}),(0,n.jsxs)(t.tr,{children:[(0,n.jsx)(t.td,{style:{textAlign:"left"},children:"S"}),(0,n.jsx)(t.td,{style:{textAlign:"left"},children:(0,n.jsx)(t.code,{children:"Data"})})]}),(0,n.jsxs)(t.tr,{children:[(0,n.jsx)(t.td,{style:{textAlign:"left"},children:"V"}),(0,n.jsx)(t.td,{style:{textAlign:"left"},children:(0,n.jsx)(t.code,{children:"Quantity"})})]}),(0,n.jsxs)(t.tr,{children:[(0,n.jsx)(t.td,{style:{textAlign:"left"},children:"StandardV"}),(0,n.jsx)(t.td,{style:{textAlign:"left"},children:(0,n.jsx)(t.code,{children:"Quantity"})})]})]})]}),(0,n.jsx)(t.p,{children:(0,n.jsx)(t.code,{children:"PublicKey"})}),(0,n.jsxs)(t.table,{children:[(0,n.jsx)(t.thead,{children:(0,n.jsxs)(t.tr,{children:[(0,n.jsx)(t.th,{style:{textAlign:"left"},children:"Field name"}),(0,n.jsx)(t.th,{style:{textAlign:"left"},children:"Type"})]})}),(0,n.jsxs)(t.tbody,{children:[(0,n.jsxs)(t.tr,{children:[(0,n.jsx)(t.td,{style:{textAlign:"left"},children:"Address"}),(0,n.jsx)(t.td,{style:{textAlign:"left"},children:(0,n.jsx)(t.code,{children:"Address"})})]}),(0,n.jsxs)(t.tr,{children:[(0,n.jsx)(t.td,{style:{textAlign:"left"},children:"Bytes"}),(0,n.jsx)(t.td,{style:{textAlign:"left"},children:(0,n.jsx)(t.code,{children:"Data"})})]}),(0,n.jsxs)(t.tr,{children:[(0,n.jsx)(t.td,{style:{textAlign:"left"},children:"PrefixedBytes"}),(0,n.jsx)(t.td,{style:{textAlign:"left"},children:(0,n.jsx)(t.code,{children:"Data"})})]})]})]})]})]}),"\n",(0,n.jsx)(t.p,{children:(0,n.jsx)(t.a,{href:"https://docs.nethermind.io/nethermind/ethereum-client/json-rpc/parity#parity_pendingtransactions",children:"See also JSON RPC parity_pendingTransactions"})}),"\n",(0,n.jsx)(t.h2,{id:"paritysetenginesigner",children:"parity.setEngineSigner"}),"\n",(0,n.jsx)(t.p,{children:"Sets an authority account for signing consensus messages."}),"\n",(0,n.jsxs)(t.table,{children:[(0,n.jsx)(t.thead,{children:(0,n.jsx)(t.tr,{children:(0,n.jsx)(t.th,{style:{textAlign:"left"},children:"Invocation"})})}),(0,n.jsx)(t.tbody,{children:(0,n.jsx)(t.tr,{children:(0,n.jsx)(t.td,{style:{textAlign:"left"},children:(0,n.jsx)(t.code,{children:"parity.setEngineSigner(address, password)"})})})})]}),"\n",(0,n.jsxs)(t.table,{children:[(0,n.jsx)(t.thead,{children:(0,n.jsxs)(t.tr,{children:[(0,n.jsx)(t.th,{style:{textAlign:"left"},children:"Parameter"}),(0,n.jsx)(t.th,{style:{textAlign:"left"},children:"Type"}),(0,n.jsx)(t.th,{style:{textAlign:"left"},children:"Description"})]})}),(0,n.jsxs)(t.tbody,{children:[(0,n.jsxs)(t.tr,{children:[(0,n.jsx)(t.td,{style:{textAlign:"left"},children:"address"}),(0,n.jsx)(t.td,{style:{textAlign:"left"},children:(0,n.jsx)(t.code,{children:"Address"})}),(0,n.jsx)(t.td,{style:{textAlign:"left"}})]}),(0,n.jsxs)(t.tr,{children:[(0,n.jsx)(t.td,{style:{textAlign:"left"},children:"password"}),(0,n.jsx)(t.td,{style:{textAlign:"left"},children:(0,n.jsx)(t.code,{children:"String"})}),(0,n.jsx)(t.td,{style:{textAlign:"left"}})]})]})]}),"\n",(0,n.jsxs)(t.table,{children:[(0,n.jsx)(t.thead,{children:(0,n.jsxs)(t.tr,{children:[(0,n.jsx)(t.th,{style:{textAlign:"left"},children:"Returned type"}),(0,n.jsx)(t.th,{style:{textAlign:"left"},children:"Description"})]})}),(0,n.jsx)(t.tbody,{children:(0,n.jsxs)(t.tr,{children:[(0,n.jsx)(t.td,{style:{textAlign:"left"},children:(0,n.jsx)(t.code,{children:"Boolean"})}),(0,n.jsx)(t.td,{style:{textAlign:"left"}})]})})]}),"\n",(0,n.jsxs)(r.Z,{children:[(0,n.jsx)(i.Z,{label:"Request",value:"request",children:(0,n.jsx)(t.pre,{children:(0,n.jsx)(t.code,{className:"language-yaml",children:"parity.setEngineSigner(address, password)\n"})})}),(0,n.jsx)(i.Z,{label:"Response",value:"response",children:(0,n.jsx)(t.pre,{children:(0,n.jsx)(t.code,{className:"language-yaml",children:"true\n"})})})]}),"\n",(0,n.jsx)(t.p,{children:(0,n.jsx)(t.a,{href:"https://docs.nethermind.io/nethermind/ethereum-client/json-rpc/parity#parity_setenginesigner",children:"See also JSON RPC parity_setEngineSigner"})}),"\n",(0,n.jsx)(t.h2,{id:"paritysetenginesignersecret",children:"parity.setEngineSignerSecret"}),"\n",(0,n.jsx)(t.p,{children:"Sets an authority account for signing consensus messages."}),"\n",(0,n.jsxs)(t.table,{children:[(0,n.jsx)(t.thead,{children:(0,n.jsx)(t.tr,{children:(0,n.jsx)(t.th,{style:{textAlign:"left"},children:"Invocation"})})}),(0,n.jsx)(t.tbody,{children:(0,n.jsx)(t.tr,{children:(0,n.jsx)(t.td,{style:{textAlign:"left"},children:(0,n.jsx)(t.code,{children:"parity.setEngineSignerSecret(privateKey)"})})})})]}),"\n",(0,n.jsxs)(t.table,{children:[(0,n.jsx)(t.thead,{children:(0,n.jsxs)(t.tr,{children:[(0,n.jsx)(t.th,{style:{textAlign:"left"},children:"Parameter"}),(0,n.jsx)(t.th,{style:{textAlign:"left"},children:"Type"}),(0,n.jsx)(t.th,{style:{textAlign:"left"},children:"Description"})]})}),(0,n.jsx)(t.tbody,{children:(0,n.jsxs)(t.tr,{children:[(0,n.jsx)(t.td,{style:{textAlign:"left"},children:"privateKey"}),(0,n.jsx)(t.td,{style:{textAlign:"left"},children:(0,n.jsx)(t.code,{children:"String"})}),(0,n.jsx)(t.td,{style:{textAlign:"left"}})]})})]}),"\n",(0,n.jsxs)(t.table,{children:[(0,n.jsx)(t.thead,{children:(0,n.jsxs)(t.tr,{children:[(0,n.jsx)(t.th,{style:{textAlign:"left"},children:"Returned type"}),(0,n.jsx)(t.th,{style:{textAlign:"left"},children:"Description"})]})}),(0,n.jsx)(t.tbody,{children:(0,n.jsxs)(t.tr,{children:[(0,n.jsx)(t.td,{style:{textAlign:"left"},children:(0,n.jsx)(t.code,{children:"Boolean"})}),(0,n.jsx)(t.td,{style:{textAlign:"left"}})]})})]}),"\n",(0,n.jsx)(t.pre,{children:(0,n.jsx)(t.code,{className:"language-yaml",metastring:'title="Example request of parity.setEngineSignerSecret" ',children:"parity.setEngineSignerSecret(privateKey)\n"})}),"\n",(0,n.jsx)(t.p,{children:(0,n.jsx)(t.a,{href:"https://docs.nethermind.io/nethermind/ethereum-client/json-rpc/parity#parity_setenginesignersecret",children:"See also JSON RPC parity_setEngineSignerSecret"})})]})}function o(e={}){const{wrapper:t}={...(0,s.a)(),...e.components};return t?(0,n.jsx)(t,{...e,children:(0,n.jsx)(j,{...e})}):j(e)}},5162:(e,t,l)=>{l.d(t,{Z:()=>i});l(7294);var n=l(6010);const s={tabItem:"tabItem_Ymn6"};var r=l(5893);function i(e){let{children:t,hidden:l,className:i}=e;return(0,r.jsx)("div",{role:"tabpanel",className:(0,n.Z)(s.tabItem,i),hidden:l,children:t})}},4866:(e,t,l)=>{l.d(t,{Z:()=>v});var n=l(7294),s=l(6010),r=l(2466),i=l(6550),d=l(469),c=l(1980),x=l(7392),a=l(12);function h(e){return n.Children.toArray(e).filter((e=>"\n"!==e)).map((e=>{if(!e||(0,n.isValidElement)(e)&&function(e){const{props:t}=e;return!!t&&"object"==typeof t&&"value"in t}(e))return e;throw new Error(`Docusaurus error: Bad <Tabs> child <${"string"==typeof e.type?e.type:e.type.name}>: all children of the <Tabs> component should be <TabItem>, and every <TabItem> should have a unique "value" prop.`)}))?.filter(Boolean)??[]}function j(e){const{values:t,children:l}=e;return(0,n.useMemo)((()=>{const e=t??function(e){return h(e).map((e=>{let{props:{value:t,label:l,attributes:n,default:s}}=e;return{value:t,label:l,attributes:n,default:s}}))}(l);return function(e){const t=(0,x.l)(e,((e,t)=>e.value===t.value));if(t.length>0)throw new Error(`Docusaurus error: Duplicate values "${t.map((e=>e.value)).join(", ")}" found in <Tabs>. Every value needs to be unique.`)}(e),e}),[t,l])}function o(e){let{value:t,tabValues:l}=e;return l.some((e=>e.value===t))}function y(e){let{queryString:t=!1,groupId:l}=e;const s=(0,i.k6)(),r=function(e){let{queryString:t=!1,groupId:l}=e;if("string"==typeof t)return t;if(!1===t)return null;if(!0===t&&!l)throw new Error('Docusaurus error: The <Tabs> component groupId prop is required if queryString=true, because this value is used as the search param name. You can also provide an explicit value such as queryString="my-search-param".');return l??null}({queryString:t,groupId:l});return[(0,c._X)(r),(0,n.useCallback)((e=>{if(!r)return;const t=new URLSearchParams(s.location.search);t.set(r,e),s.replace({...s.location,search:t.toString()})}),[r,s])]}function f(e){const{defaultValue:t,queryString:l=!1,groupId:s}=e,r=j(e),[i,c]=(0,n.useState)((()=>function(e){let{defaultValue:t,tabValues:l}=e;if(0===l.length)throw new Error("Docusaurus error: the <Tabs> component requires at least one <TabItem> children component");if(t){if(!o({value:t,tabValues:l}))throw new Error(`Docusaurus error: The <Tabs> has a defaultValue "${t}" but none of its children has the corresponding value. Available values are: ${l.map((e=>e.value)).join(", ")}. If you intend to show no default tab, use defaultValue={null} instead.`);return t}const n=l.find((e=>e.default))??l[0];if(!n)throw new Error("Unexpected error: 0 tabValues");return n.value}({defaultValue:t,tabValues:r}))),[x,h]=y({queryString:l,groupId:s}),[f,g]=function(e){let{groupId:t}=e;const l=function(e){return e?`docusaurus.tab.${e}`:null}(t),[s,r]=(0,a.Nk)(l);return[s,(0,n.useCallback)((e=>{l&&r.set(e)}),[l,r])]}({groupId:s}),u=(()=>{const e=x??f;return o({value:e,tabValues:r})?e:null})();(0,d.Z)((()=>{u&&c(u)}),[u]);return{selectedValue:i,selectValue:(0,n.useCallback)((e=>{if(!o({value:e,tabValues:r}))throw new Error(`Can't select invalid tab value=${e}`);c(e),h(e),g(e)}),[h,g,r]),tabValues:r}}var g=l(2389);const u={tabList:"tabList__CuJ",tabItem:"tabItem_LNqP"};var p=l(5893);function b(e){let{className:t,block:l,selectedValue:n,selectValue:i,tabValues:d}=e;const c=[],{blockElementScrollPositionUntilNextRender:x}=(0,r.o5)(),a=e=>{const t=e.currentTarget,l=c.indexOf(t),s=d[l].value;s!==n&&(x(t),i(s))},h=e=>{let t=null;switch(e.key){case"Enter":a(e);break;case"ArrowRight":{const l=c.indexOf(e.currentTarget)+1;t=c[l]??c[0];break}case"ArrowLeft":{const l=c.indexOf(e.currentTarget)-1;t=c[l]??c[c.length-1];break}}t?.focus()};return(0,p.jsx)("ul",{role:"tablist","aria-orientation":"horizontal",className:(0,s.Z)("tabs",{"tabs--block":l},t),children:d.map((e=>{let{value:t,label:l,attributes:r}=e;return(0,p.jsx)("li",{role:"tab",tabIndex:n===t?0:-1,"aria-selected":n===t,ref:e=>c.push(e),onKeyDown:h,onClick:a,...r,className:(0,s.Z)("tabs__item",u.tabItem,r?.className,{"tabs__item--active":n===t}),children:l??t},t)}))})}function A(e){let{lazy:t,children:l,selectedValue:s}=e;const r=(Array.isArray(l)?l:[l]).filter(Boolean);if(t){const e=r.find((e=>e.props.value===s));return e?(0,n.cloneElement)(e,{className:"margin-top--md"}):null}return(0,p.jsx)("div",{className:"margin-top--md",children:r.map(((e,t)=>(0,n.cloneElement)(e,{key:t,hidden:e.props.value!==s})))})}function m(e){const t=f(e);return(0,p.jsxs)("div",{className:(0,s.Z)("tabs-container",u.tabList),children:[(0,p.jsx)(b,{...e,...t}),(0,p.jsx)(A,{...e,...t})]})}function v(e){const t=(0,g.Z)();return(0,p.jsx)(m,{...e,children:h(e.children)},String(t))}},1151:(e,t,l)=>{l.d(t,{Z:()=>d,a:()=>i});var n=l(7294);const s={},r=n.createContext(s);function i(e){const t=n.useContext(r);return n.useMemo((function(){return"function"==typeof e?e(t):{...t,...e}}),[t,e])}function d(e){let t;return t=e.disableParentContext?"function"==typeof e.components?e.components(s):e.components||s:i(e.components),n.createElement(r.Provider,{value:t},e.children)}}}]);