<!doctype html>
<html lang="en" dir="ltr" class="docs-wrapper docs-doc-page docs-version-current plugin-docs plugin-id-default docs-doc-id-utilities/cli/proof">
<head>
<meta charset="UTF-8">
<meta name="generator" content="Docusaurus v2.4.1">
<title data-rh="true">proof | Nethermind documentation</title><meta data-rh="true" name="viewport" content="width=device-width,initial-scale=1"><meta data-rh="true" name="twitter:card" content="summary_large_image"><meta data-rh="true" property="og:url" content="https://nethermind.github.io/docs/utilities/cli/proof"><meta data-rh="true" name="docusaurus_locale" content="en"><meta data-rh="true" name="docsearch:language" content="en"><meta data-rh="true" name="docusaurus_version" content="current"><meta data-rh="true" name="docusaurus_tag" content="docs-default-current"><meta data-rh="true" name="docsearch:version" content="current"><meta data-rh="true" name="docsearch:docusaurus_tag" content="docs-default-current"><meta data-rh="true" property="og:title" content="proof | Nethermind documentation"><meta data-rh="true" name="description" content="proof.getTransactionByHash"><meta data-rh="true" property="og:description" content="proof.getTransactionByHash"><link data-rh="true" rel="icon" href="/docs/img/favicon.svg"><link data-rh="true" rel="canonical" href="https://nethermind.github.io/docs/utilities/cli/proof"><link data-rh="true" rel="alternate" href="https://nethermind.github.io/docs/utilities/cli/proof" hreflang="en"><link data-rh="true" rel="alternate" href="https://nethermind.github.io/docs/utilities/cli/proof" hreflang="x-default"><link data-rh="true" rel="preconnect" href="https://0-dsn.algolia.net" crossorigin="anonymous"><link rel="search" type="application/opensearchdescription+xml" title="Nethermind documentation" href="/docs/opensearch.xml">
<link rel="preconnect" href="https://fonts.googleapis.com">
<link rel="preconnect" href="https://fonts.gstatic.com" crossorigin="crossorigin">
<link rel="stylesheet" href="https://fonts.googleapis.com/css2?family=Red+Hat+Display:ital,wght@0,300;0,400;0,500;0,600;0,700;1,300;1,400;1,500;1,600;1,700&amp;family=Red+Hat+Mono:ital,wght@0,300;0,400;0,500;0,600;0,700;1,300;1,400;1,500;1,600;1,700&amp;family=Red+Hat+Text:ital,wght@0,300;0,400;0,500;0,600;0,700;1,300;1,400;1,500;1,600;1,700&amp;display=swap&quot; rel=&quot;stylesheet"><link rel="stylesheet" href="/docs/assets/css/styles.d9f99d2b.css">
<link rel="preload" href="/docs/assets/js/runtime~main.f5b0c070.js" as="script">
<link rel="preload" href="/docs/assets/js/main.4b47927f.js" as="script">
</head>
<body class="navigation-with-keyboard">
<script>!function(){function t(t){document.documentElement.setAttribute("data-theme",t)}var e=function(){var t=null;try{t=new URLSearchParams(window.location.search).get("docusaurus-theme")}catch(t){}return t}()||function(){var t=null;try{t=localStorage.getItem("theme")}catch(t){}return t}();t(null!==e?e:"light")}()</script><div id="__docusaurus">
<div role="region" aria-label="Skip to main content"><a class="skipToContent_fXgn" href="#__docusaurus_skipToContent_fallback">Skip to main content</a></div><nav aria-label="Main" class="navbar navbar--fixed-top"><div class="navbar__inner"><div class="navbar__items"><button aria-label="Toggle navigation bar" aria-expanded="false" class="navbar__toggle clean-btn" type="button"><svg width="30" height="30" viewBox="0 0 30 30" aria-hidden="true"><path stroke="currentColor" stroke-linecap="round" stroke-miterlimit="10" stroke-width="2" d="M4 7h22M4 15h22M4 23h22"></path></svg></button><a class="navbar__brand" target="_self" href="/docs/"><div class="navbar__logo"><img src="/docs/img/logo_dark.svg" alt="Nethermind" class="themedImage_ToTc themedImage--light_HNdA"><img src="/docs/img/logo_light.svg" alt="Nethermind" class="themedImage_ToTc themedImage--dark_i4oU"></div></a><a class="navbar__item navbar__link" href="/docs/">v1.20.1</a></div><div class="navbar__items navbar__items--right"><a href="https://github.com/NethermindEth/nethermind" target="_blank" rel="noopener noreferrer" class="navbar__item navbar__link header-github-link" aria-label="GitHub"></a><a href="https://discord.com/invite/PaCMRFdvWT" target="_blank" rel="noopener noreferrer" class="navbar__item navbar__link header-discord-link" aria-label="Discord"></a><a href="https://twitter.com/NethermindEth" target="_blank" rel="noopener noreferrer" class="navbar__item navbar__link header-x-link" aria-label="X"></a><div class="toggle_vylO colorModeToggle_DEke"><button class="clean-btn toggleButton_gllP toggleButtonDisabled_aARS" type="button" disabled="" title="Switch between dark and light mode (currently light mode)" aria-label="Switch between dark and light mode (currently light mode)" aria-live="polite"><svg viewBox="0 0 24 24" width="24" height="24" class="lightToggleIcon_pyhR"><path fill="currentColor" d="M12,9c1.65,0,3,1.35,3,3s-1.35,3-3,3s-3-1.35-3-3S10.35,9,12,9 M12,7c-2.76,0-5,2.24-5,5s2.24,5,5,5s5-2.24,5-5 S14.76,7,12,7L12,7z M2,13l2,0c0.55,0,1-0.45,1-1s-0.45-1-1-1l-2,0c-0.55,0-1,0.45-1,1S1.45,13,2,13z M20,13l2,0c0.55,0,1-0.45,1-1 s-0.45-1-1-1l-2,0c-0.55,0-1,0.45-1,1S19.45,13,20,13z M11,2v2c0,0.55,0.45,1,1,1s1-0.45,1-1V2c0-0.55-0.45-1-1-1S11,1.45,11,2z M11,20v2c0,0.55,0.45,1,1,1s1-0.45,1-1v-2c0-0.55-0.45-1-1-1C11.45,19,11,19.45,11,20z M5.99,4.58c-0.39-0.39-1.03-0.39-1.41,0 c-0.39,0.39-0.39,1.03,0,1.41l1.06,1.06c0.39,0.39,1.03,0.39,1.41,0s0.39-1.03,0-1.41L5.99,4.58z M18.36,16.95 c-0.39-0.39-1.03-0.39-1.41,0c-0.39,0.39-0.39,1.03,0,1.41l1.06,1.06c0.39,0.39,1.03,0.39,1.41,0c0.39-0.39,0.39-1.03,0-1.41 L18.36,16.95z M19.42,5.99c0.39-0.39,0.39-1.03,0-1.41c-0.39-0.39-1.03-0.39-1.41,0l-1.06,1.06c-0.39,0.39-0.39,1.03,0,1.41 s1.03,0.39,1.41,0L19.42,5.99z M7.05,18.36c0.39-0.39,0.39-1.03,0-1.41c-0.39-0.39-1.03-0.39-1.41,0l-1.06,1.06 c-0.39,0.39-0.39,1.03,0,1.41s1.03,0.39,1.41,0L7.05,18.36z"></path></svg><svg viewBox="0 0 24 24" width="24" height="24" class="darkToggleIcon_wfgR"><path fill="currentColor" d="M9.37,5.51C9.19,6.15,9.1,6.82,9.1,7.5c0,4.08,3.32,7.4,7.4,7.4c0.68,0,1.35-0.09,1.99-0.27C17.45,17.19,14.93,19,12,19 c-3.86,0-7-3.14-7-7C5,9.07,6.81,6.55,9.37,5.51z M12,3c-4.97,0-9,4.03-9,9s4.03,9,9,9s9-4.03,9-9c0-0.46-0.04-0.92-0.1-1.36 c-0.98,1.37-2.58,2.26-4.4,2.26c-2.98,0-5.4-2.42-5.4-5.4c0-1.81,0.89-3.42,2.26-4.4C12.92,3.04,12.46,3,12,3L12,3z"></path></svg></button></div><div class="searchBox_ZlJk"><button type="button" class="DocSearch DocSearch-Button" aria-label="Search"><span class="DocSearch-Button-Container"><svg width="20" height="20" class="DocSearch-Search-Icon" viewBox="0 0 20 20"><path d="M14.386 14.386l4.0877 4.0877-4.0877-4.0877c-2.9418 2.9419-7.7115 2.9419-10.6533 0-2.9419-2.9418-2.9419-7.7115 0-10.6533 2.9418-2.9419 7.7115-2.9419 10.6533 0 2.9419 2.9418 2.9419 7.7115 0 10.6533z" stroke="currentColor" fill="none" fill-rule="evenodd" stroke-linecap="round" stroke-linejoin="round"></path></svg><span class="DocSearch-Button-Placeholder">Search</span></span><span class="DocSearch-Button-Keys"></span></button></div></div></div><div role="presentation" class="navbar-sidebar__backdrop"></div></nav><div id="__docusaurus_skipToContent_fallback" class="main-wrapper mainWrapper_z2l0 docsWrapper_BCFX"><button aria-label="Scroll back to top" class="clean-btn theme-back-to-top-button backToTopButton_sjWU" type="button"></button><div class="docPage__5DB"><aside class="theme-doc-sidebar-container docSidebarContainer_b6E3"><div class="sidebarViewport_Xe31"><div class="sidebar_njMd"><nav aria-label="Docs sidebar" class="menu thin-scrollbar menu_SIkG"><ul class="theme-doc-sidebar-menu menu__list"><li class="theme-doc-sidebar-item-category theme-doc-sidebar-item-category-level-1 menu__list-item menu__list-item--collapsed"><div class="menu__list-item-collapsible"><a class="menu__link menu__link--sublist menu__link--sublist-caret" aria-expanded="false" href="/docs/">Get started</a></div></li><li class="theme-doc-sidebar-item-category theme-doc-sidebar-item-category-level-1 menu__list-item menu__list-item--collapsed"><div class="menu__list-item-collapsible"><a class="menu__link menu__link--sublist menu__link--sublist-caret" aria-expanded="false" href="/docs/fundamentals/running-nethermind">Fundamentals</a></div></li><li class="theme-doc-sidebar-item-category theme-doc-sidebar-item-category-level-1 menu__list-item menu__list-item--collapsed"><div class="menu__list-item-collapsible"><a class="menu__link menu__link--sublist menu__link--sublist-caret" aria-expanded="false" href="/docs/interacting/json-rpc-server">Interacting with Nethermind</a></div></li><li class="theme-doc-sidebar-item-category theme-doc-sidebar-item-category-level-1 menu__list-item menu__list-item--collapsed"><div class="menu__list-item-collapsible"><a class="menu__link menu__link--sublist menu__link--sublist-caret" aria-expanded="false" href="/docs/monitoring/metrics">Monitoring</a></div></li><li class="theme-doc-sidebar-item-category theme-doc-sidebar-item-category-level-1 menu__list-item menu__list-item--collapsed"><div class="menu__list-item-collapsible"><a class="menu__link menu__link--sublist menu__link--sublist-caret" aria-expanded="false" href="/docs/validators/eth2-validator">Validators</a></div></li><li class="theme-doc-sidebar-item-category theme-doc-sidebar-item-category-level-1 menu__list-item menu__list-item--collapsed"><div class="menu__list-item-collapsible"><a class="menu__link menu__link--sublist menu__link--sublist-caret" aria-expanded="false" href="/docs/developers/building-from-source">Developers</a></div></li><li class="theme-doc-sidebar-item-category theme-doc-sidebar-item-category-level-1 menu__list-item"><div class="menu__list-item-collapsible"><a class="menu__link menu__link--sublist menu__link--active" aria-expanded="true" href="/docs/category/utilities">Utilities</a><button aria-label="Toggle the collapsible sidebar category &#x27;Utilities&#x27;" type="button" class="clean-btn menu__caret"></button></div><ul style="display:block;overflow:visible;height:auto" class="menu__list"><li class="theme-doc-sidebar-item-link theme-doc-sidebar-item-link-level-2 menu__list-item"><a class="menu__link" tabindex="0" href="/docs/utilities/launcher">Launcher</a></li><li class="theme-doc-sidebar-item-category theme-doc-sidebar-item-category-level-2 menu__list-item"><div class="menu__list-item-collapsible"><a class="menu__link menu__link--sublist menu__link--active" aria-expanded="true" tabindex="0" href="/docs/utilities/cli">CLI</a><button aria-label="Toggle the collapsible sidebar category &#x27;CLI&#x27;" type="button" class="clean-btn menu__caret"></button></div><ul style="display:block;overflow:visible;height:auto" class="menu__list"><li class="theme-doc-sidebar-item-link theme-doc-sidebar-item-link-level-3 menu__list-item"><a class="menu__link" tabindex="0" href="/docs/utilities/cli/admin">admin</a></li><li class="theme-doc-sidebar-item-link theme-doc-sidebar-item-link-level-3 menu__list-item"><a class="menu__link" tabindex="0" href="/docs/utilities/cli/clique">clique</a></li><li class="theme-doc-sidebar-item-link theme-doc-sidebar-item-link-level-3 menu__list-item"><a class="menu__link" tabindex="0" href="/docs/utilities/cli/debug">debug</a></li><li class="theme-doc-sidebar-item-link theme-doc-sidebar-item-link-level-3 menu__list-item"><a class="menu__link" tabindex="0" href="/docs/utilities/cli/diag">diag</a></li><li class="theme-doc-sidebar-item-link theme-doc-sidebar-item-link-level-3 menu__list-item"><a class="menu__link" tabindex="0" href="/docs/utilities/cli/eth">eth</a></li><li class="theme-doc-sidebar-item-link theme-doc-sidebar-item-link-level-3 menu__list-item"><a class="menu__link" tabindex="0" href="/docs/utilities/cli/net">net</a></li><li class="theme-doc-sidebar-item-link theme-doc-sidebar-item-link-level-3 menu__list-item"><a class="menu__link" tabindex="0" href="/docs/utilities/cli/node">node</a></li><li class="theme-doc-sidebar-item-link theme-doc-sidebar-item-link-level-3 menu__list-item"><a class="menu__link" tabindex="0" href="/docs/utilities/cli/parity">parity</a></li><li class="theme-doc-sidebar-item-link theme-doc-sidebar-item-link-level-3 menu__list-item"><a class="menu__link" tabindex="0" href="/docs/utilities/cli/personal">personal</a></li><li class="theme-doc-sidebar-item-link theme-doc-sidebar-item-link-level-3 menu__list-item"><a class="menu__link menu__link--active" aria-current="page" tabindex="0" href="/docs/utilities/cli/proof">proof</a></li><li class="theme-doc-sidebar-item-link theme-doc-sidebar-item-link-level-3 menu__list-item"><a class="menu__link" tabindex="0" href="/docs/utilities/cli/system">system</a></li><li class="theme-doc-sidebar-item-link theme-doc-sidebar-item-link-level-3 menu__list-item"><a class="menu__link" tabindex="0" href="/docs/utilities/cli/trace">trace</a></li><li class="theme-doc-sidebar-item-link theme-doc-sidebar-item-link-level-3 menu__list-item"><a class="menu__link" tabindex="0" href="/docs/utilities/cli/txpool">txpool</a></li><li class="theme-doc-sidebar-item-link theme-doc-sidebar-item-link-level-3 menu__list-item"><a class="menu__link" tabindex="0" href="/docs/utilities/cli/web3">web3</a></li></ul></li></ul></li><li class="theme-doc-sidebar-item-category theme-doc-sidebar-item-category-level-1 menu__list-item menu__list-item--collapsed"><div class="menu__list-item-collapsible"><a class="menu__link menu__link--sublist" aria-expanded="false" href="/docs/category/resources">Resources</a><button aria-label="Toggle the collapsible sidebar category &#x27;Resources&#x27;" type="button" class="clean-btn menu__caret"></button></div></li></ul></nav></div></div></aside><main class="docMainContainer_gTbr"><div class="container padding-top--md padding-bottom--lg"><div class="row"><div class="col docItemCol_VOVn"><div class="docItemContainer_Djhp"><article><nav class="theme-doc-breadcrumbs breadcrumbsContainer_Z_bl" aria-label="Breadcrumbs"><ul class="breadcrumbs" itemscope="" itemtype="https://schema.org/BreadcrumbList"><li class="breadcrumbs__item"><a aria-label="Home page" class="breadcrumbs__link" href="/docs/"><svg viewBox="0 0 24 24" class="breadcrumbHomeIcon_YNFT"><path d="M10 19v-5h4v5c0 .55.45 1 1 1h3c.55 0 1-.45 1-1v-7h1.7c.46 0 .68-.57.33-.87L12.67 3.6c-.38-.34-.96-.34-1.34 0l-8.36 7.53c-.34.3-.13.87.33.87H5v7c0 .55.45 1 1 1h3c.55 0 1-.45 1-1z" fill="currentColor"></path></svg></a></li><li itemscope="" itemprop="itemListElement" itemtype="https://schema.org/ListItem" class="breadcrumbs__item"><a class="breadcrumbs__link" itemprop="item" href="/docs/category/utilities"><span itemprop="name">Utilities</span></a><meta itemprop="position" content="1"></li><li itemscope="" itemprop="itemListElement" itemtype="https://schema.org/ListItem" class="breadcrumbs__item"><a class="breadcrumbs__link" itemprop="item" href="/docs/utilities/cli"><span itemprop="name">CLI</span></a><meta itemprop="position" content="2"></li><li itemscope="" itemprop="itemListElement" itemtype="https://schema.org/ListItem" class="breadcrumbs__item breadcrumbs__item--active"><span class="breadcrumbs__link" itemprop="name">proof</span><meta itemprop="position" content="3"></li></ul></nav><div class="tocCollapsible_ETCw theme-doc-toc-mobile tocMobile_ITEo"><button type="button" class="clean-btn tocCollapsibleButton_TO0P">On this page</button></div><div class="theme-doc-markdown markdown"><h1>proof</h1><h2 class="anchor anchorWithStickyNavbar_LWe7" id="proofgettransactionbyhash">proof.getTransactionByHash<a href="#proofgettransactionbyhash" class="hash-link" aria-label="Direct link to proof.getTransactionByHash" title="Direct link to proof.getTransactionByHash">​</a></h2><p>This function returns the same result as <code>eth_getTransactionReceipt</code> and also a tx proof, receipt proof and serialized
block headers.</p><table><thead><tr><th align="left">Invocation</th></tr></thead><tbody><tr><td align="left"><code>proof.getTransactionByHash(txHash, includeHeader)</code></td></tr></tbody></table><table><thead><tr><th align="left">Parameter</th><th align="left">Type</th><th align="left">Description</th></tr></thead><tbody><tr><td align="left">txHash</td><td align="left"><code>Hash</code></td><td align="left"></td></tr><tr><td align="left">includeHeader</td><td align="left"><code>Boolean</code></td><td align="left"></td></tr></tbody></table><table><thead><tr><th align="left">Returned type</th><th align="left">Description</th></tr></thead><tbody><tr><td align="left"><code>TransactionWithProof object</code></td><td align="left"></td></tr></tbody></table><div class="tabs-container tabList__CuJ"><ul role="tablist" aria-orientation="horizontal" class="tabs"><li role="tab" tabindex="0" aria-selected="true" class="tabs__item tabItem_LNqP tabs__item--active">Request</li><li role="tab" tabindex="-1" aria-selected="false" class="tabs__item tabItem_LNqP">Response</li><li role="tab" tabindex="-1" aria-selected="false" class="tabs__item tabItem_LNqP">Object</li></ul><div class="margin-top--md"><div role="tabpanel" class="tabItem_Ymn6"><div class="language-yaml codeBlockContainer_Ckt0 theme-code-block" style="--prism-color:#393A34;--prism-background-color:#f6f8fa"><div class="codeBlockContent_biex"><pre tabindex="0" class="prism-code language-yaml codeBlock_bY9V thin-scrollbar"><code class="codeBlockLines_e6Vv"><span class="token-line" style="color:#393A34"><span class="token plain">proof.getTransactionByHash(txHash</span><span class="token punctuation" style="color:#393A34">,</span><span class="token plain"> includeHeader)</span><br></span></code></pre><div class="buttonGroup__atx"><button type="button" aria-label="Copy code to clipboard" title="Copy" class="clean-btn"><span class="copyButtonIcons_eSgA" aria-hidden="true"><svg viewBox="0 0 24 24" class="copyButtonIcon_y97N"><path fill="currentColor" d="M19,21H8V7H19M19,5H8A2,2 0 0,0 6,7V21A2,2 0 0,0 8,23H19A2,2 0 0,0 21,21V7A2,2 0 0,0 19,5M16,1H4A2,2 0 0,0 2,3V17H4V3H16V1Z"></path></svg><svg viewBox="0 0 24 24" class="copyButtonSuccessIcon_LjdS"><path fill="currentColor" d="M21,7L9,19L3.5,13.5L4.91,12.09L9,16.17L19.59,5.59L21,7Z"></path></svg></span></button></div></div></div></div><div role="tabpanel" class="tabItem_Ymn6" hidden=""><div class="language-yaml codeBlockContainer_Ckt0 theme-code-block" style="--prism-color:#393A34;--prism-background-color:#f6f8fa"><div class="codeBlockContent_biex"><pre tabindex="0" class="prism-code language-yaml codeBlock_bY9V thin-scrollbar"><code class="codeBlockLines_e6Vv"><span class="token-line" style="color:#393A34"><span class="token key atrule" style="color:#00a4db">&quot;transaction&quot;</span><span class="token punctuation" style="color:#393A34">:</span><span class="token plain"> </span><span class="token punctuation" style="color:#393A34">{</span><span class="token plain"> </span><span class="token key atrule" style="color:#00a4db">&quot;hash&quot;</span><span class="token punctuation" style="color:#393A34">:</span><span class="token plain"> </span><span class="token string" style="color:#e3116c">&quot;0xb62594c08de66c683fbffe44792a1ccc0f9b80e43071048ed03c18a71fd3c19a&quot;</span><span class="token punctuation" style="color:#393A34">,</span><span class="token key atrule" style="color:#00a4db">&quot;nonce&quot;</span><span class="token punctuation" style="color:#393A34">:</span><span class="token plain"> </span><span class="token string" style="color:#e3116c">&quot;0x630&quot;</span><span class="token punctuation" style="color:#393A34">,</span><span class="token key atrule" style="color:#00a4db">&quot;blockHash&quot;</span><span class="token punctuation" style="color:#393A34">:</span><span class="token plain"> </span><span class="token string" style="color:#e3116c">&quot;0x42d72739c2b2659916d7b42a49661fdec317e780af1395c2c15aa89b4c42e220&quot;</span><span class="token punctuation" style="color:#393A34">,</span><span class="token key atrule" style="color:#00a4db">&quot;blockNumber&quot;</span><span class="token punctuation" style="color:#393A34">:</span><span class="token plain"> </span><span class="token string" style="color:#e3116c">&quot;0x88f194&quot;</span><span class="token punctuation" style="color:#393A34">,</span><span class="token key atrule" style="color:#00a4db">&quot;transactionIndex&quot;</span><span class="token punctuation" style="color:#393A34">:</span><span class="token plain"> </span><span class="token string" style="color:#e3116c">&quot;0x24&quot;</span><span class="token punctuation" style="color:#393A34">,</span><span class="token key atrule" style="color:#00a4db">&quot;from&quot;</span><span class="token punctuation" style="color:#393A34">:</span><span class="token plain"> </span><span class="token string" style="color:#e3116c">&quot;0x78ca86e8133ef9368b4537879cf2f38fddbb636b&quot;</span><span class="token punctuation" style="color:#393A34">,</span><span class="token key atrule" style="color:#00a4db">&quot;to&quot;</span><span class="token punctuation" style="color:#393A34">:</span><span class="token plain"> </span><span class="token string" style="color:#e3116c">&quot;0x1dfd95eb75a7486945d366a0bc0b937f0aaa526f&quot;</span><span class="token punctuation" style="color:#393A34">,</span><span class="token key atrule" style="color:#00a4db">&quot;value&quot;</span><span class="token punctuation" style="color:#393A34">:</span><span class="token plain"> </span><span class="token string" style="color:#e3116c">&quot;0x0&quot;</span><span class="token punctuation" style="color:#393A34">,</span><span class="token key atrule" style="color:#00a4db">&quot;gasPrice&quot;</span><span class="token punctuation" style="color:#393A34">:</span><span class="token plain"> </span><span class="token string" style="color:#e3116c">&quot;0x3b9aca00&quot;</span><span class="token punctuation" style="color:#393A34">,</span><span class="token key atrule" style="color:#00a4db">&quot;gas&quot;</span><span class="token punctuation" style="color:#393A34">:</span><span class="token plain"> </span><span class="token string" style="color:#e3116c">&quot;0xc9e2&quot;</span><span class="token punctuation" style="color:#393A34">,</span><span class="token key atrule" style="color:#00a4db">&quot;data&quot;</span><span class="token punctuation" style="color:#393A34">:</span><span class="token plain"> </span><span class="token string" style="color:#e3116c">&quot;0xa9059cbb000000000000000000000000e3ac1cc1453e70f80ff58f3bb56b0532238ae24a00000000000000000000000000000000000000000000003635c9adc5dea00000&quot;</span><span class="token punctuation" style="color:#393A34">,</span><span class="token key atrule" style="color:#00a4db">&quot;input&quot;</span><span class="token punctuation" style="color:#393A34">:</span><span class="token plain"> </span><span class="token string" style="color:#e3116c">&quot;0xa9059cbb000000000000000000000000e3ac1cc1453e70f80ff58f3bb56b0532238ae24a00000000000000000000000000000000000000000000003635c9adc5dea00000&quot;</span><span class="token punctuation" style="color:#393A34">,</span><span class="token key atrule" style="color:#00a4db">&quot;type&quot;</span><span class="token punctuation" style="color:#393A34">:</span><span class="token plain"> </span><span class="token string" style="color:#e3116c">&quot;0x0&quot;</span><span class="token punctuation" style="color:#393A34">,</span><span class="token key atrule" style="color:#00a4db">&quot;v&quot;</span><span class="token punctuation" style="color:#393A34">:</span><span class="token plain"> </span><span class="token string" style="color:#e3116c">&quot;0x2b&quot;</span><span class="token punctuation" style="color:#393A34">,</span><span class="token key atrule" style="color:#00a4db">&quot;s&quot;</span><span class="token punctuation" style="color:#393A34">:</span><span class="token plain"> </span><span class="token string" style="color:#e3116c">&quot;0x33a9425e84bf310d372a9f531b237baebccfdd2b426e817cc9553355a9165342&quot;</span><span class="token punctuation" style="color:#393A34">,</span><span class="token key atrule" style="color:#00a4db">&quot;r&quot;</span><span class="token punctuation" style="color:#393A34">:</span><span class="token plain"> </span><span class="token string" style="color:#e3116c">&quot;0xe14a066de4787a4c0192f5a2285fd835a85baa3a4f63b1e8a2d8d7f6e04425ca&quot;</span><span class="token plain"> </span><span class="token punctuation" style="color:#393A34">}</span><span class="token punctuation" style="color:#393A34">,</span><span class="token key atrule" style="color:#00a4db">&quot;txProof&quot;</span><span class="token punctuation" style="color:#393A34">:</span><span class="token plain"> </span><span class="token punctuation" style="color:#393A34">[</span><span class="token plain"> </span><span class="token string" style="color:#e3116c">&quot;0xf891a0311d3b27b7612bf40c2c5d623c62c2afe30a47f486700074e4c4d7cf603c90c8a0cd64d350a95e9286a580a75ae11fe58801992f9ac65ace8a0b853d16f87b09b0a0ae9d609ff06d19bb911d7ad05cfdd6c80a9f1fddccbdb76a78594536122345ce8080808080a09773b23452983c0ed65aebb64522af322967c62be34414e16b32b7e4bdaecdb68080808080808080&quot;</span><span class="token punctuation" style="color:#393A34">,</span><span class="token string" style="color:#e3116c">&quot;0xf8b1a0715f91aae7675a1c8469685d18bc94241d275c82a3b52df6c4fab064fcba3017a0e77ac7615c08eaafccc876956f3dad1892f08c1f1128e2cdf9064664381a540fa06f2d934e5f7995657144ad66b8b5cdce6b6c141422f95d44eb91ca6765d4f819a0b265c005bad056db029945b3d68a631b624a77703733fa9b2042c0f211f8ef4ea0bb97f719cc5f6082fe5bab8588dc564a843a6b40c5494982ded868f19eef07b6808080808080808080808080&quot;</span><span class="token punctuation" style="color:#393A34">,</span><span class="token string" style="color:#e3116c">&quot;0xf8af20b8acf8aa820630843b9aca0082c9e2941dfd95eb75a7486945d366a0bc0b937f0aaa526f80b844a9059cbb000000000000000000000000e3ac1cc1453e70f80ff58f3bb56b0532238ae24a00000000000000000000000000000000000000000000003635c9adc5dea000002ba0e14a066de4787a4c0192f5a2285fd835a85baa3a4f63b1e8a2d8d7f6e04425caa033a9425e84bf310d372a9f531b237baebccfdd2b426e817cc9553355a9165342&quot;</span><span class="token plain"> </span><span class="token punctuation" style="color:#393A34">]</span><br></span></code></pre><div class="buttonGroup__atx"><button type="button" aria-label="Copy code to clipboard" title="Copy" class="clean-btn"><span class="copyButtonIcons_eSgA" aria-hidden="true"><svg viewBox="0 0 24 24" class="copyButtonIcon_y97N"><path fill="currentColor" d="M19,21H8V7H19M19,5H8A2,2 0 0,0 6,7V21A2,2 0 0,0 8,23H19A2,2 0 0,0 21,21V7A2,2 0 0,0 19,5M16,1H4A2,2 0 0,0 2,3V17H4V3H16V1Z"></path></svg><svg viewBox="0 0 24 24" class="copyButtonSuccessIcon_LjdS"><path fill="currentColor" d="M21,7L9,19L3.5,13.5L4.91,12.09L9,16.17L19.59,5.59L21,7Z"></path></svg></span></button></div></div></div></div><div role="tabpanel" class="tabItem_Ymn6" hidden=""><p><code>TransactionWithProof</code></p><table><thead><tr><th align="left">Field name</th><th align="left">Type</th></tr></thead><tbody><tr><td align="left">Transaction</td><td align="left"><code>TransactionForRpc object</code></td></tr><tr><td align="left">TxProof</td><td align="left"><code>Data</code></td></tr><tr><td align="left">BlockHeader</td><td align="left"><code>Data</code></td></tr></tbody></table><p><code>TransactionForRpc</code></p><table><thead><tr><th align="left">Field name</th><th align="left">Type</th></tr></thead><tbody><tr><td align="left">Hash</td><td align="left"><code>Hash</code></td></tr><tr><td align="left">Nonce</td><td align="left"><code>Quantity</code></td></tr><tr><td align="left">BlockHash</td><td align="left"><code>Hash</code></td></tr><tr><td align="left">BlockNumber</td><td align="left"><code>Quantity</code></td></tr><tr><td align="left">TransactionIndex</td><td align="left"><code>Quantity</code></td></tr><tr><td align="left">From</td><td align="left"><code>Address</code></td></tr><tr><td align="left">To</td><td align="left"><code>Address</code></td></tr><tr><td align="left">Value</td><td align="left"><code>Quantity</code></td></tr><tr><td align="left">GasPrice</td><td align="left"><code>Quantity</code></td></tr><tr><td align="left">MaxPriorityFeePerGas</td><td align="left"><code>Quantity</code></td></tr><tr><td align="left">MaxFeePerGas</td><td align="left"><code>Quantity</code></td></tr><tr><td align="left">Gas</td><td align="left"><code>Quantity</code></td></tr><tr><td align="left">Data</td><td align="left"><code>Data</code></td></tr><tr><td align="left">Input</td><td align="left"><code>Data</code></td></tr><tr><td align="left">ChainId</td><td align="left"><code>Quantity</code></td></tr><tr><td align="left">Type</td><td align="left"><code>TxType object</code></td></tr><tr><td align="left">AccessList</td><td align="left"><code>AccessListItemForRpc[] object</code></td></tr><tr><td align="left">MaxFeePerDataGas</td><td align="left"><code>Quantity</code></td></tr><tr><td align="left">BlobVersionedHashes</td><td align="left"><code>Data</code></td></tr><tr><td align="left">V</td><td align="left"><code>Quantity</code></td></tr><tr><td align="left">S</td><td align="left"><code>Quantity</code></td></tr><tr><td align="left">R</td><td align="left"><code>Quantity</code></td></tr><tr><td align="left">YParity</td><td align="left"><code>Quantity</code></td></tr></tbody></table></div></div></div><p><a href="https://docs.nethermind.io/nethermind/ethereum-client/json-rpc/proof#proof_gettransactionbyhash" target="_blank" rel="noopener noreferrer">See also JSON RPC proof_getTransactionByHash</a></p><h2 class="anchor anchorWithStickyNavbar_LWe7" id="proofgettransactionreceipt">proof.getTransactionReceipt<a href="#proofgettransactionreceipt" class="hash-link" aria-label="Direct link to proof.getTransactionReceipt" title="Direct link to proof.getTransactionReceipt">​</a></h2><p>This function should return the same result as <code>eth_call</code> and also proofs of all used accounts and their storages and
serialized block headers.</p><table><thead><tr><th align="left">Invocation</th></tr></thead><tbody><tr><td align="left"><code>proof.getTransactionReceipt(txHash, includeHeader)</code></td></tr></tbody></table><table><thead><tr><th align="left">Parameter</th><th align="left">Type</th><th align="left">Description</th></tr></thead><tbody><tr><td align="left">txHash</td><td align="left"><code>Hash</code></td><td align="left"></td></tr><tr><td align="left">includeHeader</td><td align="left"><code>Boolean</code></td><td align="left"></td></tr></tbody></table><table><thead><tr><th align="left">Returned type</th><th align="left">Description</th></tr></thead><tbody><tr><td align="left"><code>ReceiptWithProof object</code></td><td align="left"></td></tr></tbody></table><div class="tabs-container tabList__CuJ"><ul role="tablist" aria-orientation="horizontal" class="tabs"><li role="tab" tabindex="0" aria-selected="true" class="tabs__item tabItem_LNqP tabs__item--active">Request</li><li role="tab" tabindex="-1" aria-selected="false" class="tabs__item tabItem_LNqP">Response</li><li role="tab" tabindex="-1" aria-selected="false" class="tabs__item tabItem_LNqP">Object</li></ul><div class="margin-top--md"><div role="tabpanel" class="tabItem_Ymn6"><div class="language-yaml codeBlockContainer_Ckt0 theme-code-block" style="--prism-color:#393A34;--prism-background-color:#f6f8fa"><div class="codeBlockContent_biex"><pre tabindex="0" class="prism-code language-yaml codeBlock_bY9V thin-scrollbar"><code class="codeBlockLines_e6Vv"><span class="token-line" style="color:#393A34"><span class="token plain">proof.getTransactionReceipt(txHash</span><span class="token punctuation" style="color:#393A34">,</span><span class="token plain"> includeHeader)</span><br></span></code></pre><div class="buttonGroup__atx"><button type="button" aria-label="Copy code to clipboard" title="Copy" class="clean-btn"><span class="copyButtonIcons_eSgA" aria-hidden="true"><svg viewBox="0 0 24 24" class="copyButtonIcon_y97N"><path fill="currentColor" d="M19,21H8V7H19M19,5H8A2,2 0 0,0 6,7V21A2,2 0 0,0 8,23H19A2,2 0 0,0 21,21V7A2,2 0 0,0 19,5M16,1H4A2,2 0 0,0 2,3V17H4V3H16V1Z"></path></svg><svg viewBox="0 0 24 24" class="copyButtonSuccessIcon_LjdS"><path fill="currentColor" d="M21,7L9,19L3.5,13.5L4.91,12.09L9,16.17L19.59,5.59L21,7Z"></path></svg></span></button></div></div></div></div><div role="tabpanel" class="tabItem_Ymn6" hidden=""><div class="language-yaml codeBlockContainer_Ckt0 theme-code-block" style="--prism-color:#393A34;--prism-background-color:#f6f8fa"><div class="codeBlockContent_biex"><pre tabindex="0" class="prism-code language-yaml codeBlock_bY9V thin-scrollbar"><code class="codeBlockLines_e6Vv"><span class="token-line" style="color:#393A34"><span class="token punctuation" style="color:#393A34">{</span><span class="token plain"> </span><span class="token key atrule" style="color:#00a4db">&quot;receipt&quot;</span><span class="token punctuation" style="color:#393A34">:</span><span class="token plain"> </span><span class="token punctuation" style="color:#393A34">{</span><span class="token plain"> </span><span class="token key atrule" style="color:#00a4db">&quot;transactionHash&quot;</span><span class="token punctuation" style="color:#393A34">:</span><span class="token plain"> </span><span class="token string" style="color:#e3116c">&quot;0xfff473e0d10e9dcc18bb4585fb2ba17f682949996f5dfda41c20c425a53b4e71&quot;</span><span class="token punctuation" style="color:#393A34">,</span><span class="token key atrule" style="color:#00a4db">&quot;transactionIndex&quot;</span><span class="token punctuation" style="color:#393A34">:</span><span class="token plain"> </span><span class="token string" style="color:#e3116c">&quot;0x0&quot;</span><span class="token punctuation" style="color:#393A34">,</span><span class="token key atrule" style="color:#00a4db">&quot;blockHash&quot;</span><span class="token punctuation" style="color:#393A34">:</span><span class="token plain"> </span><span class="token string" style="color:#e3116c">&quot;0x539822db4041dac07f02819b1337f5f9d7291a996f80d9c05ada334c7a97264c&quot;</span><span class="token punctuation" style="color:#393A34">,</span><span class="token key atrule" style="color:#00a4db">&quot;blockNumber&quot;</span><span class="token punctuation" style="color:#393A34">:</span><span class="token plain"> </span><span class="token string" style="color:#e3116c">&quot;0x1&quot;</span><span class="token punctuation" style="color:#393A34">,</span><span class="token key atrule" style="color:#00a4db">&quot;cumulativeGasUsed&quot;</span><span class="token punctuation" style="color:#393A34">:</span><span class="token plain"> </span><span class="token string" style="color:#e3116c">&quot;0x0&quot;</span><span class="token punctuation" style="color:#393A34">,</span><span class="token key atrule" style="color:#00a4db">&quot;gasUsed&quot;</span><span class="token punctuation" style="color:#393A34">:</span><span class="token plain"> </span><span class="token string" style="color:#e3116c">&quot;0x0&quot;</span><span class="token punctuation" style="color:#393A34">,</span><span class="token key atrule" style="color:#00a4db">&quot;to&quot;</span><span class="token punctuation" style="color:#393A34">:</span><span class="token plain"> </span><span class="token null important">null</span><span class="token punctuation" style="color:#393A34">,</span><span class="token key atrule" style="color:#00a4db">&quot;contractAddress&quot;</span><span class="token punctuation" style="color:#393A34">:</span><span class="token plain"> </span><span class="token null important">null</span><span class="token punctuation" style="color:#393A34">,</span><span class="token key atrule" style="color:#00a4db">&quot;logs&quot;</span><span class="token punctuation" style="color:#393A34">:</span><span class="token plain"> </span><span class="token punctuation" style="color:#393A34">[</span><span class="token plain"> </span><span class="token punctuation" style="color:#393A34">]</span><span class="token punctuation" style="color:#393A34">,</span><span class="token key atrule" style="color:#00a4db">&quot;logsBloom&quot;</span><span class="token punctuation" style="color:#393A34">:</span><span class="token plain"> </span><span class="token string" style="color:#e3116c">&quot;0x00000000000000000000000000000000000000000000000000000000000000000000000000000000000000000000000000000000000000000000000000000000000000000000000000000000000000000000000000000000000000000000000000000000000000000000000000000000000000000000000000000000000000000000000000000000000000000000000000000000000000000000000000000000000000000000000000000000000000000000000000000000000000000000000000000000000000000000000000000000000000000000000000000000000000000000000000000000000000000000000000000000000000000000000000000000&quot;</span><span class="token punctuation" style="color:#393A34">,</span><span class="token key atrule" style="color:#00a4db">&quot;status&quot;</span><span class="token punctuation" style="color:#393A34">:</span><span class="token plain"> </span><span class="token string" style="color:#e3116c">&quot;0x0&quot;</span><span class="token punctuation" style="color:#393A34">,</span><span class="token key atrule" style="color:#00a4db">&quot;type&quot;</span><span class="token punctuation" style="color:#393A34">:</span><span class="token plain"> </span><span class="token string" style="color:#e3116c">&quot;0x0&quot;</span><span class="token plain"> </span><span class="token punctuation" style="color:#393A34">}</span><span class="token punctuation" style="color:#393A34">,</span><span class="token key atrule" style="color:#00a4db">&quot;txProof&quot;</span><span class="token punctuation" style="color:#393A34">:</span><span class="token plain"> </span><span class="token punctuation" style="color:#393A34">[</span><span class="token plain"> </span><span class="token string" style="color:#e3116c">&quot;0xf851a073ff16e6f3a3ca20ba99ad5bacc973e800ba7ec7092266fcd2520703613e3d9580808080808080a0a70de17dcf5a91c1b986463b4e8419665333b2a66e66f7127baae3d4d58d052d8080808080808080&quot;</span><span class="token punctuation" style="color:#393A34">,</span><span class="token string" style="color:#e3116c">&quot;0xf86530b862f86080018252089400000000000000000000000000000000000000000181801ca0b4e030f395ed357d206b58d9a0ded408589a9e26f1a5b41010772cd0d84b8d16a04d9797a972bc308ea635f22455881c41c7c9fb946c93db6f99d2bd529675af13&quot;</span><span class="token plain"> </span><span class="token punctuation" style="color:#393A34">]</span><span class="token punctuation" style="color:#393A34">,</span><span class="token key atrule" style="color:#00a4db">&quot;receiptProof&quot;</span><span class="token punctuation" style="color:#393A34">:</span><span class="token plain"> </span><span class="token punctuation" style="color:#393A34">[</span><span class="token plain"> </span><span class="token string" style="color:#e3116c">&quot;0xf851a08e4cd3def722e9727e505d3798454165d832e1aabd5c56e5d0e4e9f0796a783280808080808080a05380738598f169c9e407a0f61558e53ea59a4c5e643aabc57679c7c0a3b761428080808080808080&quot;</span><span class="token punctuation" style="color:#393A34">,</span><span class="token string" style="color:#e3116c">&quot;0xf9012f30b9012bf90128a056e81f171bcc55a6ff8345e692c0f86e5b48e01b996cadc001622fb5e363b421825208b9010000000000000000000000000000000000000000000000000000000000000000000000000000000000000000000000000000000000000000000000000000000000000000000000000000000000000000000000000000000000000000000000000000000000000000000000000000000000000000000000000000000000000000000000000000000000000000000000000000000000000000000000000000000000000000000000000000000000000000000000000000000000000000000000000000000000000000000000000000000000000000000000000000000000000000000000000000000000000000000000000000000000000000000000000000000000c0&quot;</span><span class="token plain"> </span><span class="token punctuation" style="color:#393A34">]</span><span class="token punctuation" style="color:#393A34">,</span><span class="token key atrule" style="color:#00a4db">&quot;blockHeader&quot;</span><span class="token punctuation" style="color:#393A34">:</span><span class="token plain"> </span><span class="token string" style="color:#e3116c">&quot;0xf901f9a0b3157bcccab04639f6393042690a6c9862deebe88c781f911e8dfd265531e9ffa01dcc4de8dec75d7aab85b567b6ccd41ad312451b948a7413f0a142fd40d49347940000000000000000000000000000000000000000a056e81f171bcc55a6ff8345e692c0f86e5b48e01b996cadc001622fb5e363b421a0541c8844bd420f79a5f7f8db723e2106160d350043de7cf76d78ea13ed0ff6c9a0e1b1585a222beceb3887dc6701802facccf186c2d0f6aa69e26ae0c431fc2b5db9010000000000000000000000000000000000000000000000000000000000000000000000000000000000000000000000000000000000000000000000000000000000000000000000000000000000000000000000000000000000000000000000000000000000000000000000000000000000000000000000000000000000000000000000000000000000000000000000000000000000000000000000000000000000000000000000000000000000000000000000000000000000000000000000000000000000000000000000000000000000000000000000000000000000000000000000000000000000000000000000000000000000000000000000000000000000830f424001833d090080830f424183010203a02ba5557a4c62a513c7e56d1bf13373e0da6bec016755483e91589fe1c6d212e28800000000000003e8&quot;</span><span class="token plain"> </span><span class="token punctuation" style="color:#393A34">}</span><br></span></code></pre><div class="buttonGroup__atx"><button type="button" aria-label="Copy code to clipboard" title="Copy" class="clean-btn"><span class="copyButtonIcons_eSgA" aria-hidden="true"><svg viewBox="0 0 24 24" class="copyButtonIcon_y97N"><path fill="currentColor" d="M19,21H8V7H19M19,5H8A2,2 0 0,0 6,7V21A2,2 0 0,0 8,23H19A2,2 0 0,0 21,21V7A2,2 0 0,0 19,5M16,1H4A2,2 0 0,0 2,3V17H4V3H16V1Z"></path></svg><svg viewBox="0 0 24 24" class="copyButtonSuccessIcon_LjdS"><path fill="currentColor" d="M21,7L9,19L3.5,13.5L4.91,12.09L9,16.17L19.59,5.59L21,7Z"></path></svg></span></button></div></div></div></div><div role="tabpanel" class="tabItem_Ymn6" hidden=""><p><code>ReceiptWithProof</code></p><table><thead><tr><th align="left">Field name</th><th align="left">Type</th></tr></thead><tbody><tr><td align="left">Receipt</td><td align="left"><code>ReceiptForRpc object</code></td></tr><tr><td align="left">TxProof</td><td align="left"><code>Data</code></td></tr><tr><td align="left">ReceiptProof</td><td align="left"><code>Data</code></td></tr><tr><td align="left">BlockHeader</td><td align="left"><code>Data</code></td></tr></tbody></table><p><code>ReceiptForRpc</code></p><table><thead><tr><th align="left">Field name</th><th align="left">Type</th></tr></thead><tbody><tr><td align="left">TransactionHash</td><td align="left"><code>Hash</code></td></tr><tr><td align="left">TransactionIndex</td><td align="left"><code>Quantity</code></td></tr><tr><td align="left">BlockHash</td><td align="left"><code>Hash</code></td></tr><tr><td align="left">BlockNumber</td><td align="left"><code>Quantity</code></td></tr><tr><td align="left">CumulativeGasUsed</td><td align="left"><code>Quantity</code></td></tr><tr><td align="left">GasUsed</td><td align="left"><code>Quantity</code></td></tr><tr><td align="left">DataGasUsed</td><td align="left"><code>Quantity</code></td></tr><tr><td align="left">DataGasPrice</td><td align="left"><code>Quantity</code></td></tr><tr><td align="left">EffectiveGasPrice</td><td align="left"><code>Quantity</code></td></tr><tr><td align="left">From</td><td align="left"><code>Address</code></td></tr><tr><td align="left">To</td><td align="left"><code>Address</code></td></tr><tr><td align="left">ContractAddress</td><td align="left"><code>Address</code></td></tr><tr><td align="left">Logs</td><td align="left"><code>LogEntryForRpc[] object</code></td></tr><tr><td align="left">LogsBloom</td><td align="left"><code>Bloom Object</code></td></tr><tr><td align="left">Root</td><td align="left"><code>Hash</code></td></tr><tr><td align="left">Status</td><td align="left"><code>Quantity</code></td></tr><tr><td align="left">Error</td><td align="left"><code>String</code></td></tr><tr><td align="left">Type</td><td align="left"><code>TxType object</code></td></tr></tbody></table></div></div></div><p><a href="https://docs.nethermind.io/nethermind/ethereum-client/json-rpc/proof#proof_gettransactionreceipt" target="_blank" rel="noopener noreferrer">See also JSON RPC proof_getTransactionReceipt</a></p></div><footer class="theme-doc-footer docusaurus-mt-lg"><div class="theme-doc-footer-edit-meta-row row"><div class="col"><a href="https://github.com/NethermindEth/docs/tree/main/docs/docs/utilities/cli/proof.md" target="_blank" rel="noreferrer noopener" class="theme-edit-this-page"><svg fill="currentColor" height="20" width="20" viewBox="0 0 40 40" class="iconEdit_Z9Sw" aria-hidden="true"><g><path d="m34.5 11.7l-3 3.1-6.3-6.3 3.1-3q0.5-0.5 1.2-0.5t1.1 0.5l3.9 3.9q0.5 0.4 0.5 1.1t-0.5 1.2z m-29.5 17.1l18.4-18.5 6.3 6.3-18.4 18.4h-6.3v-6.2z"></path></g></svg>Edit this page</a></div><div class="col lastUpdated_vwxv"><span class="theme-last-updated">Last updated<!-- --> on <b><time datetime="2023-09-19T19:04:29.000Z">Sep 19, 2023</time></b></span></div></div></footer></article><nav class="pagination-nav docusaurus-mt-lg" aria-label="Docs pages"><a class="pagination-nav__link pagination-nav__link--prev" href="/docs/utilities/cli/personal"><div class="pagination-nav__sublabel">Previous</div><div class="pagination-nav__label">personal</div></a><a class="pagination-nav__link pagination-nav__link--next" href="/docs/utilities/cli/system"><div class="pagination-nav__sublabel">Next</div><div class="pagination-nav__label">system</div></a></nav></div></div><div class="col col--3"><div class="tableOfContents_bqdL thin-scrollbar theme-doc-toc-desktop"><ul class="table-of-contents table-of-contents__left-border"><li><a href="#proofgettransactionbyhash" class="table-of-contents__link toc-highlight">proof.getTransactionByHash</a></li><li><a href="#proofgettransactionreceipt" class="table-of-contents__link toc-highlight">proof.getTransactionReceipt</a></li></ul></div></div></div></div></main></div></div></div>
<script src="/docs/assets/js/runtime~main.f5b0c070.js"></script>
<script src="/docs/assets/js/main.4b47927f.js"></script>
</body>
</html>